:020000040000FA
:10000000C0310020350100003D0100003F0100002B
:100010004101000043010000450100000000000014
:10002000000000000000000000000000E1160000D9
:100030004901000000000000D91600001917000057
:100040004F0100004F0100004F0100004F01000070
:100050004F0100004F0100004F0100004F01000060
:100060004F0100004F0100004F0100004F01000050
:100070004F0100004F0100004F0100004F01000040
:100080004F0100004F0100004F0100004F01000030
:100090004F0100004F0100004F0100004F01000020
:1000A0004F0100004F0100004F0100004F01000010
:1000B0004F0100004F0100004F0100004F01000000
:1000C0004F0100004F0100004F0100004F010000F0
:1000D0004F0100004F0100004F0100004F010000E0
:1000E0004F0100004F0100004F0100004F010000D0
:1000F0004F0100004F0100004F0100004F010000C0
:100100004F0100004F0100004F0100004F010000AF
:100110004F0100004F0100004F0100004F0100009F
:10012000DFF80CD000F0A2F800480047891A000060
:10013000C03100200648804706480047FEE7FEE73A
:10014000FEE7FEE7FEE7FEE7FEE7FEE7FEE7FEE787
:100150007D180000210100002DE9F05F0546002018
:1001600092469B4688460646814640241BE0284628
:1001700041464746224600F069F853465A46C01A9F
:10018000914110D311461846224600F050F82D1A1E
:1001900067EB01084F4622460120002100F047F896
:1001A00017EB00094E41201EA4F10104DFDC484694
:1001B00031462A464346BDE8F09F40EA01039B07CB
:1001C00003D009E008C9121F08C0042AFAD203E0CC
:1001D00011F8013B00F8013B521EF9D27047D2B230
:1001E00001E000F8012B491EFBD270470022F6E720
:1001F00010B513460A4604461946FFF7F0FF20469D
:1002000010BD30B50B46014600202022012409E034
:1002100021FA02F59D4205D303FA02F5491B04FABF
:1002200002F52844151EA2F10102F1DC30BD202A9E
:1002300004DB203A00FA02F1002070479140C2F13D
:10024000200320FA03F3194390407047202A04DB6F
:10025000203A21FA02F00021704721FA02F3D0403F
:10026000C2F120029140084319467047064C074DE1
:1002700006E0E06840F0010394E807009847103476
:10028000AC42F6D3FFF750FF5C3600007C3600002E
:1002900040F60061C0F22771884202D94FF44071E4
:1002A0002CE04EF20011C0F2F551884202D94FF411
:1002B000207123E04BF20041C0F2C441884202D9D0
:1002C0004FF400711AE048F20071C0F29331884295
:1002D00002D94FF4C07111E045F60021C0F262214D
:1002E000884202D94FF4807108E042F60052C0F211
:1002F00031124FF44071904288BF802142F20000D9
:10030000C4F20200026822F478621143016070476F
:1003100010B504464FF6FF70C0F2BF70044204D01F
:100320000020CFF64000204006D043F23560C0F2F6
:100330000000A82101F084FB40F20041C4F2010159
:100340000868A04308604868A04348608868A043E4
:100350008860C86820EA04020020CA6010BD00005E
:1003600010B504464FF6FF70C0F2BF70044204D0CF
:100370000020CFF64000204007D043F23560C0F2A5
:1003800000004FF4987101F05BFB40F21440C4F29E
:100390000100046010BD00002DE9F0410C46B1F5EC
:1003A000005F804680F229807F2C00F33680601E3B
:1003B0003F2800F26480DFE800F06E6E626E6262D9
:1003C000626E626262626262626E626262626262F5
:1003D0006262626262626262626E626262626262F1
:1003E00062626262626262626262626262626262ED
:1003F0006262626262626262626EB4F5002F18DB52
:10040000B4F5000F22DBB4F1007F40DAB4F5000F41
:1004100041D0B4F1807F3ED031E0B4F5806F1FDA77
:10042000802C18BFB4F5807F35D0B4F5007F32D072
:1004300025E0B4F5803F1BDAB4F5005F18BFB4F5D2
:10044000804F28D0B4F5004F25D018E0B4F5002F28
:1004500018BFB4F5801F1ED0B4F5001F1BD00EE0EE
:1004600018BFB4F5006F16D0B4F5805F13D006E066
:1004700018BFB4F5003F0ED0B4F5802F0BD043F277
:100480003560C0F20000C82101F0DAFA03E018BFBD
:10049000B4F1806FF3D140F20046C4F20106306837
:1004A000204202D13068204232D0A5B2002D04BFD4
:1004B0000120BDE8F08108F138404FEAB027062F4F
:1004C00006D343F23560C0F20000D82101F0B8FA3B
:1004D00041F20040C4F6000080450CD14FF6E070B8
:1004E000CFF64000204006D043F23560C0F2000055
:1004F000D92101F0A5FA00216FF01F0025FA01F2C1
:10050000D20708D1013135FA01F200F10400F5D12A
:100510000020BDE8F08107298EBFF169B169203064
:1005200021FA00F000F00F00052F28BF0527C01B9F
:10053000B0FA80F04009BDE8F08100002DE9F04FED
:1005400081B08B464FF6FF71C0F2BF7191461BEA36
:10055000010F804605D00020CFF6400010EA0B00C6
:1005600006D043F23560C0F200003A2101F068FA8B
:100570004FF6FF74C1F2210400250027A145C1F206
:100580002205C1F211070CDCB9451DD00020C1F2D3
:100590001200814518D00020C1F22100814513D0FE
:1005A0000BE0A94510D00020C1F2310081450BD0ED
:1005B0000020C1F23200814506D043F23560C0F21E
:1005C00000003B2101F03CFA40F2084AC4F2010A63
:1005D0005AF8080C1FFA8BF620EA0B004AF8080CB0
:1005E0005AF8040C002E20EA0B004AF8040CDAF842
:1005F000000020EA0B00CAF80000DAF8040020EA44
:100600000B00CAF804005CD008F1384044464FEAB9
:10061000B028B8F1060F06D343F23560C0F20000EF
:10062000482101F00DFA41F20040C4F60000844276
:100630000DD14FF6E070CFF6400010EA0B0006D067
:1006400043F23560C0F20000492101F0F9F9B8F138
:10065000050F28BF4FF00508DAF81010DAF814007B
:1006600001226FF01F030F250DE000BF05FA03F70D
:10067000B84308FA03F7384336FA02F702F10102E9
:1006800003F104030FD0571E26FA07F4E407F3D052
:10069000072FEBD803F1200705FA07F4A14308FA66
:1006A00007F73943E8E7002500274FF6FF74C1F24A
:1006B0002205C1F21107C1F22104CAF81010CAF8CC
:1006C0001400A14518DCB94535D00020C1F2120054
:1006D00081453DD00020C1F22100814564D1DAF886
:1006E000040040EA0B00CAF804005AF8080C40EA7B
:1006F0000B004AF8080C57E0A94536D00020C1F29B
:10070000310081453ED00020C1F2320081454BD1FD
:10071000DAF8000040EA0B00CAF80000DAF804003A
:1007200040EA0B00CAF804005AF8040C40EA0B0037
:100730004AF8040C38E0DAF8000040EA0B00CAF886
:1007400000005AF8080C40EA0B004AF8080C2BE0AD
:10075000DAF8000040EA0B00CAF800005AF8040C6E
:1007600040EA0B004AF8040C1EE0DAF8040040EA04
:100770000B00CAF804005AF8040C40EA0B004AF8CF
:10078000040C11E0DAF8000040EA0B00CAF800009F
:10079000DAF8040040EA0B00CAF804005AF8080C22
:1007A00040EA0B004AF8080C002001B0BDE8F08FC9
:1007B0002DE9F04F83B0834600F138404FEAB02076
:1007C00005280C46029136D220680021B1EB104F6B
:1007D00001D180B238B943F21060C0F200001B2191
:1007E00001F02EF9029C60684FF6FF71C1F2100112
:1007F00088420ADC122845D8012101FA00F00F21B5
:10080000C0F20601084245D13CE04FF6FF71C1F24B
:100810002101884227DC0021C1F21101884239D030
:100820000021C1F21201884234D00021C1F221011D
:1008300088422FD026E00FD040F60000C4F600001A
:1008400000F5406643F21060C0F200001A2101F08A
:10085000F7F8029CB345B7D120681F28BBD810F029
:100860001F00C0D1B7E70021C1F22201884211D098
:100870000021C1F2310188420CD00021C1F23201C5
:10088000884207D043F21060C0F200001C2101F042
:10089000D7F8029CA068032807D343F21060C0F287
:1008A00000001D2101F0CCF8029C2068002800F017
:1008B000FD8000266FF01F074FF0010917E000BF11
:1008C0002846FFF74DFD0298294642685846FFF733
:1008D00035FE029C002840F0E9802068023630FA9C
:1008E00009F109F1010907F1040700F0DF80A9F11E
:1008F000010A012101FA0AF810EA0805EDD040F6D4
:100900000000C4F6000083453CD1B5F5004F16D079
:10091000B5F5804F24D0B5F5005F33D141F2200109
:10092000C4F20201086847F2180240F00060086053
:10093000C4F200021068116820F0030020E041F2C8
:100940002001C4F20201086847F2180240F000607A
:100950000860C4F200021068116820F060000FE027
:1009600041F22001C4F20201086847F2180240F087
:1009700000600860C4F200021068116820F01800DE
:10098000084310606068019540F0100012281ED1E5
:100990002069102807D343F21060C0F20000402104
:1009A00001F04EF8029C38461C21BAF1080F38BFFE
:1009B000203038BF18215BF801200F2325698340C0
:1009C0009A4305FA00F010434BF80100019D60685E
:1009D000122830D8012101FA00F010F0061F2AD0A9
:1009E000E068082807D343F21060C0F200005721E6
:1009F00001F026F8029C38462421BAF1080F38BFCE
:100A0000203038BF20215BF801200F23E5688340A8
:100A10009A4305FA00F010434BF80100DBF804009C
:100A2000616820EA0800C1F3001101FA0AF10843E5
:100A3000CBF80400019DDBF808000321B14020EA57
:100A40000102D4E90103C943032803FA06F342EA89
:100A50000302CBF80820DBF8282042EA0802CBF892
:100A60002820DBF8302014BF22EA080242EA0802FC
:100A7000CBF83020DBF80020114000F00302B24038
:100A80001143C000CBF800103FF51AAF5846294675
:100A9000FFF782FC029C00283FF41FAF2846FFF7B7
:100AA00037FC2846FFF75CFC029C16E703B0BDE864
:100AB000F08F000040F25C0040F25801C2F20000EA
:100AC000C2F2000140690A681044086070470000E3
:100AD00080B500F001FF00F0A3FF00F0DFF940F265
:100AE0000401C2F2000108600F20012100F004F8A7
:100AF00000F046F8002080BD70B50D4640F20401BC
:100B0000C2F200014FF47A720968B2FBF5F20446B2
:100B100040F25C06B1FBF2F0C2F20006716000F038
:100B2000F1FB00281CBF012070BD4EF21400CEF274
:100B30000000006871684DF68362C4F21B32A1FBAD
:100B400002239A0C44F6D353C1F26203A1FB0313B0
:100B500099094FF48033B3FBF2F3C6E90202C6E908
:100B60000415B3610F2C28BF0F244FF0FF3021462E
:100B70000022002500F006F82846346070BD000011
:100B80007047000070B515460E46102A044606D37D
:100B900043F2C550C0F200006F2100F051FF102E4B
:100BA00006D343F2C550C0F20000702100F048FFA8
:100BB00000F014FF31462A4600F078FD0146204639
:100BC00000F01CFF70BD0000B0B5044600680528A9
:100BD00007D343F2EC50C0F200004FF4A37100F0D1
:100BE0002FFF6068102807D343F2EC50C0F20000DA
:100BF00040F2471100F024FFA0684FEA30110729A6
:100C00000CD370384FEA3010092807D343F2EC5068
:100C1000C0F200004FF4A47100F012FFE0686FF022
:100C2000030505EB302104290AD34FEA302038B1FF
:100C300043F2EC50C0F2000040F2491100F000FF16
:100C4000206905EBF02104290AD34FEAF02038B1DE
:100C500043F2EC50C0F200004FF4A57100F0F0FE3A
:100C600042F20001C4F202010A68082060F3CB12CC
:100C700041F21800C4F202000A6050F8041C226815
:100C800021F007010A430021CFF6FF7140F8042C40
:100C90000A4600BF0368002B04D4013224BF03209E
:100CA000B0BDF7E70268636822F00F021A430260E2
:100CB0000A4600BF0368002B04D4013224BF03207E
:100CC000B0BDF7E70268A36822F0F0021A430260A1
:100CD0000A4600BF0368002B04D4013224BF03205E
:100CE000B0BDF7E70268D4E9033522F47C521A4319
:100CF0002A4302600268002A04D4013124BF032081
:100D0000B0BDF7E700F0CAF840F20401C2F20001FA
:100D10000860FFF7BDFA40F25C01C2F2000108680A
:100D20004969FFF7E9FE0020B0BD000040F2040071
:100D3000C2F200000068704780B5FFF7F7FF41F28C
:100D40001801C4F202010968C1F302210439032920
:100D500088BF80BDDFE801F002080406400880BDBE
:100D6000C00880BD000980BD800880BD80B5FFF748
:100D7000DDFF41F21801C4F202010968C1F3C2218A
:100D80000439032988BF80BDDFE801F002080406AA
:100D9000400880BDC00880BD000980BD800880BDBE
:100DA00040F23020C0F20800C168CA4392B2B2EBF0
:100DB000114F11BF4FF4FA40006800EB8000400073
:100DC0007047000040F22820C0F208000168CA43C2
:100DD00092B2B2EB114F1EBF49F20000C0F2D03008
:100DE000704740684FF47A5100FB01F070470000F3
:100DF00010B541F23404C4F2020454F8200C00F09F
:100E0000070141F600300329C0F2B70011D8DFE82E
:100E100001F0020A440D54F8084CFFF7D3FF2107F4
:100E200048BF000910BDFFF7BBFF10BD4FF40040E5
:100E300010BD216801F00601042906D000291CBF5D
:100E4000012010BDFFF7BEFF000943F64011CFF6A9
:100E5000D2714AF24052D4F800C02368D4F800E0BE
:100E60004418C0F2AE2294420BD8C3F30232531C92
:100E7000B0FBF3F211444CF2C062C0F22D02914279
:100E800001D9002010BDCEF3C4010F3101FB00F0E9
:100E9000CCF30141B0FBF3F0C84010BD80B5FFF7C3
:100EA000A7FF41F21801C4F202010A68096802F0C2
:100EB0000F02C1F303110132013101FB02F1B0FB5A
:100EC000F1F080BDF0B581B0044600681F2802D85B
:100ED00010F01F0006D143F2EC50C0F200001B21BD
:100EE00000F0AEFD42F20000C4F2020001680822E8
:100EF00062F3CB1101602078002541F23406C0076F
:100F0000CFF6FF75C4F2020626D1002720788007AD
:100F100061D42078400700F180802078000700F13C
:100F2000CB802078C00600F12581002F00F09C8145
:100F3000FFF7B4FF40F20401C2F200010860FFF7BE
:100F4000A7F940F25C01C2F2000108684969FFF7A5
:100F5000D3FD002001B0F0BD6068022806D343F243
:100F6000EC50C0F20000252100F06AFD56F8200C7C
:100F7000616800F00700B0FA80F000294FEA5017CE
:100F800000F0E980A068022806D343F2EC50C0F2DA
:100F900000002E2100F054FD56F8080C0090009837
:100FA00020F008000090A068002800F04081009820
:100FB00040F008000090009840F001000090009878
:100FC00046F8080C284600BF56F8081CC9069DD4F0
:100FD0000130F9D35AE1E068022806D343F2EC501D
:100FE000C0F20000572100F02BFD56F8200C00F055
:100FF0000700012808BF0746E168B068002900F033
:101000000B8140F48070B060284600BFB16889054C
:101010003FF57FAF0130F9D338E12069022806D3CC
:1010200043F2EC50C0F200007D2100F009FD606940
:10103000022806D343F2EC50C0F200007E2100F0FB
:10104000FFFC56F8200C00F00700022808BF01271B
:101050002069002800F0F4806069022806D343F27A
:10106000EC50C0F20000872100F0EAFC56F8040CB6
:101070000090009820F002000090606918B100987C
:1010800040F002000090009820F00C0000900098C2
:1010900040F00C000090009840F001000090009893
:1010A00046F8040C284600BF56F8041CC9063FF554
:1010B00034AF0130F8D3E9E0A069022806D343F247
:1010C000EC50C0F20000B62100F0BAFC56F8200C3B
:1010D00000F00700032808BF0127A069002800F0DE
:1010E000C680E069022806D343F2EC50C0F200004B
:1010F000BF2100F0A5FC206A4FEAF000072805D8C0
:10110000012101FA00F010F0990F06D143F2EC50E2
:10111000C0F20000C02100F093FCB068009000987D
:1011200020F03C000090E06918B1009840F0040005
:101130000090206A009908430090009840F0010058
:1011400000900098B0602846B16889073FF5E9AE85
:101150000130F9D39AE056F8080C20F0010046F867
:10116000080C284656F8081CC9067FF5CFAE01309A
:10117000F8D38BE0606A022806D343F2EC50C0F249
:101180000000ED2100F05CFC56F8200C00F0070098
:10119000042808BF0127606A00287AD0A06A40F0BE
:1011A0000400042807D043F2EC50C0F2000040F2E3
:1011B000031100F045FCE06A042807D343F2EC5029
:1011C000C0F200004FF4827100F03AFC206B082856
:1011D00007D343F2EC50C0F2000040F2051100F0DA
:1011E0002FFC606B202807D343F2EC50C0F20000C4
:1011F0004FF4837100F024FC306840F0010030604F
:10120000306820F400103060284600BF3168490083
:101210004DD40130FAD339E020F48070B060284614
:10122000B16889057FF575AE0130F9D32EE0606AAB
:1012300000283FF4C0AEA06A00287FF4BCAEB6E63A
:1012400056F8040C0090009820F00F0000900098D1
:1012500046F8040C284600BF56F8041CC9067FF562
:101260005CAE0130F8D311E0002001B0F0BDB068F1
:101270000090009820F03D0000900098B060284653
:10128000B16889077FF54DAE0130F9D3032001B075
:10129000F0BD306820F00100306000BF30684000D1
:1012A0007FF543AE01354FF00300F7D352E63068C7
:1012B00048F6017100900098CFF6FC71084000904C
:1012C00004F128030FCB01F0030140EA014002F0D2
:1012D000070140EA0130009AD900C9B2104308431F
:1012E000009000983060306840F48000306000BFAB
:1012F000306840003FF519AE01354FF00300F7D3D9
:1013000028E6000080B500F0EFF9002818BF0120A2
:1013100080BD000010B5002871D00446016844F675
:10132000FF30C4F2000081424FF0010008DC44F2BB
:101330000042C4F2000291420ED044F6000207E0DF
:1013400043F60002C4F20102914205D044F6004285
:10135000C4F20002914251D1A0684FEAB0100428B3
:101360004DD8E06840F00800082848D121690120E4
:10137000062943D800FA01F111F0450F3ED061690A
:101380000120B1F5407F07DAB1F5807F0DD0B1F5CE
:10139000007F18BF10BD08E040F20032C2F2000228
:1013A000914218BFB1F5407F28D1A0694FEAB03013
:1013B000032824D8204600F025F8204600F0A8FA9B
:1013C00004F108030ECB20681143194341F02001BA
:1013D000C161D4E9052140F20033C2F200039A4210
:1013E00041EA0201416103D1816941F0010181615A
:1013F000416941F0010141610020206410BD0120DC
:1014000010BD0000B0B586B00446006844F6FF3158
:10141000C4F2000188424FF000010591CDE90311AB
:10142000CDE901114BDC44F20041C4F200018842D5
:1014300000F0898044F60001C4F20001884240F0C7
:10144000038141F22400C4F20200416840F20045E9
:1014500041F4006141600168C4F6000541F01001EB
:10146000016050F8041C41F4802140F8041C4FF442
:10147000406001900220029001200321039004911A
:10148000059001A92846FFF793F9607E000608D56C
:101490004FF4005001900020059001A92846FFF765
:1014A00087F9607E400608D54FF480400190002007
:1014B000059001A92846FFF77BF92A24BBE044F6F2
:1014C0000041C4F20001884272D043F60001C4F228
:1014D0000101884240F0B88041F22400C4F20200C9
:1014E000016841F400710160416841F4806141602C
:1014F000016841F0100101604FF4C06001900220CA
:101500000290012003210390CDE9041001A94FF0BE
:101510009040FFF74DF9607E000607D54FF400605C
:10152000019001A94FF09040FFF742F9607E40061C
:1015300007D54FF48050019001A94FF09040FFF77C
:1015400037F9282477E041F22400C4F2020050F871
:10155000041C012541F4003140F8041C416841F4A9
:1015600080614160016841F0100101600C20019030
:101570000220029003200395CDE9040501A94FF054
:101580009040FFF715F9607E000605D501A94FF0E0
:1015900090400195FFF70CF9607E400606D50220C9
:1015A000019001A94FF09040FFF702F9292442E091
:1015B00041F22400C4F20200416841F480614160BC
:1015C000016841F010010160416841F4006141602F
:1015D000016841F01001016050F8041C41F4002141
:1015E00040F8041C02210320029101210190CDE961
:1015F0000310059001A94FF09040FFF7D9F8607EE5
:1016000000060AD5802001900420059040F2004099
:10161000C4F6000001A9FFF7CBF8607E400609D5AB
:101620004FF4004001900320059001A94FF0904035
:10163000FFF7BEF82B24204600F0B8F9204600F052
:10164000D5F9204600F0BEF906B0B0BD10B504468D
:1016500030B344F6FF30C4F2000084420CDC44F2A4
:101660000040C4F2000084421AD044F60000C4F2E4
:101670000000844214D00BE044F60040C4F20000A5
:1016800084420DD043F60000C4F20100844207D02A
:1016900043F2A050C0F2000040F2625100F0D0F9D5
:1016A00040F25400C2F20000046010BD00F00700D8
:1016B00080F00703042B28BF04234FF0FF3C0338BE
:1016C0000CFA03F338BF0020994381400CFA00F074
:1016D00022EA00000843704701F032BA7047000068
:1016E00000F016BF70470000B0B501380024B4EB1D
:1016F000106F1CBF0120B0BD4EF21005CEF20005E8
:1017000068604FF0FF300F2100F078F90720AC60DF
:1017100028602046B0BD000080B501F069FAFFF7EF
:10172000C9F980BD80B500204FF480614FF40052AC
:1017300000F002F880BD000070B594B00D4606467A
:1017400006A838211446FEF751FD00200B2ECDE9E6
:101750000400CDE90200019000F28D80DFE806F080
:101760000610231E20222B36455061721120069050
:101770000120CDE907000F9000200F21109008E014
:10178000112006900120CDE907000F900020109055
:10179000052113911290119004215AE0012002E0DA
:1017A000022000E0032002900120CDE90600002085
:1017B000089001904FE01420069001200A9000212B
:1017C0000F9004200F220B91109009E01420069036
:1017D00001200A9000210F9004200B911090052207
:1017E000139202221292119129E0142006900120F6
:1017F000002104220F230A900B910F90109209E010
:10180000142006900120002104220A900B910F90D1
:1018100010920523139302231293119001920291C7
:1018200019E014200690012009220A9000210F904F
:101830000420139202220B911090CDE91122019005
:10184000029108E01420069001200A900020022155
:101850000B90019102900020CDE9030506A80594A4
:10186000FFF730FB08B100BFFEE701A8FFF7ACF9B6
:1018700008B100BFFEE714B070BD00004EF68850FE
:10188000CEF20000016841F4700241F22C01C4F272
:10189000020102600A6822F008020A600A6842F047
:1018A00001020A600A68D206FCD551F8182C43F6EA
:1018B000FF7322F0070241F8182C51F8142C9A43B8
:1018C00041F8142C51F8142CB2F1FF3FFADC00213E
:1018D00040F8801C70470000BFF34F8FBFF36F8F3D
:1018E0004EF65070CEF2000000210160BFF34F8F22
:1018F000BFF36F8F4EF61450CEF20000016841F432
:1019000000310160BFF34F8FBFF36F8F704700004E
:1019100070B50446006843F60001C4F20101884234
:1019200002D0FFF709FA01E0FFF720FA61682568A5
:101930000A01B0FBF2F644F2402406FB1200C0F2AA
:101940000F04A0FB04010023FEF706FC89014AF204
:10195000201241EA9061C0F2070212EB801041F1BF
:10196000000122460023FEF7F7FBA96840286FF329
:1019700095114FEA86120DD302F140004FF6C07266
:10198000C0F23F0210400843A860A86820F03F0161
:10199000A96070BD4FF6C073C0F23F031A401143F7
:1019A000A960A96860F30501A96070BD00F01F007F
:1019B000012101FA00F04EF28421CEF2000108600C
:1019C0007047000000F01F00012101FA00F04EF204
:1019D0000411CEF200010860704700004EF60C5072
:1019E000CEF200000068C0F302207047E421C0F28C
:1019F000E00161F31F205021017070474EF614532F
:101A000000F00F02CEF2000309011A4400F1604316
:101A1000B0F1FF3FC8BF03F564421170704700008A
:101A20004EF60C50CEF2000001684FF6FF02114056
:101A300040F20032C0F2FA521143016070470000D8
:101A40000A46014602A001F0AFFC00BFFEE700BF5E
:101A50006661696C65643A66696C653A25732C2029
:101A60006C696E653A25750D0A00000040F254015C
:101A7000C2F200010968002908BF7047086000BF72
:101A80004A689205FCD4704770B582B000F09EFAA7
:101A90000320042100220325002401F0C1F842F6AE
:101AA0007811C2F200010860002000F035FE02202B
:101AB000022600F04BFE012000F07CFE022000F028
:101AC00077FD42F25D20C0F200000BA1402200230E
:101AD0000095019401F0CEFA42F26950C0F2000084
:101AE00007A1402200230096019401F0C3FA00F000
:101AF00041FF002002B070BD436865636B000000C9
:101B00005072696E74000000F0B581B00D4642F667
:101B1000B41140F27C06C2F20001C2F200060F6866
:101B200031680446081D00F03FFB10B1601C0FD067
:101B300019E0306842F60412C06AC2F200020121C4
:101B4000136801FA00F023EA00001060601C0AD15B
:101B50004DB13068011D42F68810C2F2000000F05D
:101B60001DFC01B0F0BD3068E41944600AD340F2B6
:101B70008400C2F2000000683168043100F0F0FB1C
:101B800001B0F0BD40F28000C2F200000068316890
:101B9000043100F0E5FB42F65410C2F20000016887
:101BA0008C4238BF046001B0F0BD000070B504463F
:101BB00000F06EFC42F6F000C2F20000016840F254
:101BC0007C0501310160C2F20005296842F67C16ED
:101BD000C2F2000641B1306860B92868E16AC06AA3
:101BE000884298BF2C6005E02C600068012801D174
:101BF00000F012F942F60010C2F20000016842F64D
:101C0000041201310160E06AC2F20002012113688E
:101C10008140194300EB8000116040F28801C2F25C
:101C2000000101EB8000211D00F0B8FB00F040FC3A
:101C3000306880B12868E16AC06A884228BF70BDF8
:101C40004EF60450CEF200004FF080510160BFF319
:101C50004F8FBFF36F8F70BDF0B581B042F6F405C2
:101C6000C2F200052868E0B142F6A01642F6F0077D
:101C7000C2F20006C2F2000700F00AFCF068C46875
:101C8000201D00F091FA3868013838602868013862
:101C9000286000F00DFC204600F04CF82868002871
:101CA000EAD101B0F0BD000080B5026C002A08BF87
:101CB00080BDD0E902C31344C360634524BF0368F9
:101CC000C360C36808461946FEF777FA80BD000076
:101CD00070B5866B036C044643B31546CAB1E06821
:101CE0001A46FEF76AFAE168206C2268091A9142E6
:101CF000E16003D2A16840420844E060A81EB0FA47
:101D000080F040093146002E18BF01210840361AE4
:101D10000CE060681A46FEF750FAD4E90102216C23
:101D200008449042606001D320686060701CA0632A
:101D300070BD000010B50446006B00F0C7FB2046E4
:101D400000F0C4FB10BD000040F2EE00C2F2000043
:101D5000083042F6801120F00700C2F20001002294
:101D6000C1E9000242F64811C2F2000142F2F873E2
:101D7000C1E90023C0E9001370470000FFF76CFFC2
:101D8000FCE7000080B5002914BF1A601B60C3E99E
:101D90000F011846012100F059FF80BD2DE9F047E1
:101DA0000A9F8246386BDDF8248000EB8200089C95
:101DB0000438994620F00706002000BF0A5C3B1853
:101DC00083F834200A5C1AB10F2800F10100F5D322
:101DD0000025381D87F84350032C28BF0324FC62DC
:101DE00000F0BAFA07F1180000F0B6FAC4F10400E6
:101DF000B861304651464A463F617F627D6487F84C
:101E0000485000F09FF9B8F1000F386018BFC8F8CB
:101E10000070BDE8F0870000B0B540F288050024EE
:101E2000C2F20005281900F08BFA1434502CF9D1B5
:101E300042F62014C2F20004204600F081FA42F675
:101E40003415C2F20005284600F07AFA42F65C101A
:101E5000C2F2000000F074FA42F6A010C2F20000D4
:101E600000F06EFA42F68810C2F2000000F068FA44
:101E700040F28000C2F20000046040F28400C2F22E
:101E800000000560B0BD000010B5044600F000FB86
:101E9000A06BB0FA80F0440900F00AFB204610BDA8
:101EA00010B5044600F0F4FAA06BE16B401AB0FAEA
:101EB00080F0440900F0FCFA204610BD0848006894
:101EC000006880F308884FF0000080F3148862B641
:101ED00061B6BFF34F8FBFF36F8F00DF00BF00BF4E
:101EE00008ED00E040F28000C2F2000001680968DD
:101EF00021B10068C068C068406801E04FF0FF3061
:101F000042F65411C2F200010860704782B00446E4
:101F100000F0BEFA40F2EC00C2F20000B0F900801E
:101F200001880131018000F0C3FAD4E9016040F278
:101F3000E4094EF6045A00270125C2F20009CEF248
:101F4000000A4FF0805B00280CBFFF2040F6FF70B6
:101F5000019005E0A06800EB8000400000F09CFCD0
:101F60002068A16800F0CCFF012809D0A0680028F3
:101F7000F6D1CAF800B0BFF34F8FBFF36F8FEFE712
:101F800030680199884218BF2F460198002000BF91
:101F900030603168884218BF2F460199013088426D
:101FA000F6D9206800210022002300F085FE0028D9
:101FB00008BF0127B8F1030FCCDC3804CAD139F8C7
:101FC0001800013029F81800C4E7000080B5FEF7BA
:101FD0007FFDFFF7A7FB00F0C9F880BD81B00020AE
:101FE00000904FF0500080F31188BFF36F8FBFF364
:101FF0004F8F00BF00980028FCD001B07047000050
:10200000F0B581B0044600F043FA94F94560012E22
:102010000FDB04F1240500BF286850B1284601F009
:1020200005F9002818BF00F08DFC70B2013E0128B0
:10203000F2DCFF2684F8456000F03AFA00F028FA56
:1020400094F94470012F0EDB04F11005286850B19B
:10205000284601F0EBF8002818BF00F073FC78B2B6
:10206000013F0128F2DC84F8446000F021FA01B05D
:10207000F0BD000070B5044600F0B2FC40F27805F7
:10208000C2F20005287818B9FFF75EFE012028701B
:102090003CB104F1080010F007011CBF601A1030B9
:1020A00000E00020411E42F2F672914217D842F63B
:1020B0008015C2F200052B68194651F8044F84427E
:1020C00013D21A686AB100BF114651F8044F1D4679
:1020D0001346844209D21A68002AF5D105E0002689
:1020E0002BE042F68015C2F2000542F64812C2F219
:1020F0000002934220D02A68241A02F108061A68C6
:10210000112C2A600FD31A1854600860506842F6E8
:102110008013C2F2000300BF1D461B685C68844246
:10212000FAD313602A60086840F20C01C2F2000181
:102130000A68101A086000E0002601F0B5F8304681
:1021400070BD0000034641F6DD70C0F200004FF0A4
:10215000807C21F0010103E903106FF0020043F8D5
:10216000240CA3F1440043F8202C704710B540F232
:10217000100444F200434FF4E130C2F20004C4F210
:102180000003C02100224FF4407CC4E90030204607
:10219000C4E90212C4E9042CA261FFF7BBF820686D
:1021A000FFF754FA10BD0000D0E9012301699360E4
:1021B0004B68D0F808C08342CCF8042001D1826873
:1021C0004A600022026108680138086008687047A8
:1021D00010B5044600F05CF9A46B00F069F92046E4
:1021E00010BD000082B0044600260DF10605002750
:1021F00000E00136D4E90002294600F0EBFD012899
:10220000F8D1BDF80600B1B2884206D1002FF0D156
:10221000A068018801310180EBE701270646E9E764
:1022200082B0044600260DF10605ADF8066004E014
:10223000BDF806000130ADF80600D4E900022946D9
:10224000002300F039FD012806D1002EF0D1A0684E
:10225000018801310180EBE70126EEE784B01CA084
:1022600002901DA0019000F035FF42F6781A00267A
:1022700001270DF10409C2F2000A0DF1080B0390C9
:1022800003A841F2883100F021FB00F015FC80F03A
:10229000010400F01DFC80F0010800F02FFC054651
:1022A00000F0DCFB54EA080118BF3E46012D18BFC0
:1022B0003E46012818BF3E46DAF8000059464FF066
:1022C000FF320023012E08BF494600F0F5FCD7E796
:1022D000504153530D0A00004641494C0D0A00007D
:1022E00082B049F2474A42F2934447F21B76804655
:1022F00000254FF07B09C0F2030AC9F24924CFF64A
:10230000FE760127CDF80490019850440190019881
:10231000A0EB80000190019854FB0000811001EBBC
:10232000D07001900198B04218BF3D462804E9D111
:1023300000F0AEF8C8F8007000F0BAF8E2E700006C
:102340004FF0FF31024642F8081F00214260C0E909
:102350000322016070470000002101617047000006
:1023600080B5D1F800C01CF1010207D000F10803CC
:102370009E465B681A686245FAD901E0D0F810E021
:10238000DEF8042008614A609160C1F808E0CEF8E8
:10239000041001680131016080BD0000D0F800C068
:1023A000436808619A684B608A609A6899605160D6
:1023B0000CF101010160704782B042F670180446CA
:1023C00000270DF10605C2F20008002603E000BF59
:1023D00007460126471C2068FFF7FAFED8B120689F
:1023E0002946002200F0F6FC0128F4D1BDF80600D1
:1023F000B9B28842ECD116B101260137EBE700F003
:1024000047F8D8F800000130C8F8000000F050F894
:1024100000260137DFE7B42000F03EFADBE70000DA
:1024200082B042F67418044600270DF10605C2F288
:1024300000080026ADF80670206829460022002317
:1024400000F03AFC01280FD146B900F021F8D8F885
:1024500000000130C8F8000000F02AF8BDF80600BE
:102460000130ADF8060000E001260137032FE3D16B
:10247000C82000F011FA0027DEE70000DFF80C00AA
:10248000016841F470010160704700BF88ED00E011
:102490004FF0500080F31188BFF36F8FBFF34F8F61
:1024A00040F20800C2F2000001680131016070478B
:1024B00040F20800C2F2000001680139016018BF53
:1024C0007047002080F3118870470000002808BF83
:1024D000704710B5044600F083FA54F8040C42F635
:1024E0008012C2F2000200BF114612685368834294
:1024F000FAD344F8082D40F20C02C2F2000213682D
:102500000C601844106000F0CFFEBDE8104070472A
:10251000074B19680868B0E8F04F80F30988BFF3EB
:102520006F8F4FF0000080F31188704700BF00BF2D
:102530007C0000204EF21000CEF20000002101606D
:10254000816040F20401C2F20001096844F6D352EE
:10255000C1F26202A1FB02124FF0FF3101EB9211B6
:10256000416007210160704782B042F6781540F261
:1025700010060020C2F2000501ACC2F20006019074
:10258000286821464FF0FF3200F024FC01980178C2
:102590000029F5D0316803E001980278002AEFD0D5
:1025A0004A689206F8D4421C019200780860F3E76A
:1025B0002DE9F04F83B005460C20FFF75BFD064682
:1025C0000120022100224FF0000900F029FB40F217
:1025D000D8084FF47A7A3060C2F200080C20C6E9BD
:1025E00001A8FFF747FD31680746016040F2DE00B1
:1025F00042F2E51BC2F20000C0F2000BC7E90190F5
:10260000044639A15846402233460095CDF804903F
:1026100000F030FD42F22126C0F2000634A130461F
:1026200040223B46CDF80090CDF8049000F022FD0A
:102630000C20FFF71FFD074601200221002200F0B9
:10264000EFFAA11CC7E900090C20B960FFF712FDE1
:102650000446386808F10201C4E9000AA16026A115
:10266000584640223B46CDF80090CDF8049000F04B
:1026700001FD23A13046402223460095CDF8049069
:1026800000F0F8FC0C20FFF7F5FC044605200221C1
:10269000002200F0C5FA40F2DE01C2F2000104316E
:1026A000C4E9000A0C20A160FFF7E4FC054620689D
:1026B00008F10401C5E9000AA96013A130464022CF
:1026C0002346CDF80090CDF8049000F0D3FC10A183
:1026D000584640222B46CDF80090CDF8049000F0EB
:1026E000C9FC03B0BDE8F08F51436F6E73423100F7
:1026F0005150726F6442320051436F6E7342330027
:102700005150726F644234005150726F6442350010
:1027100051436F6E7342360080B582B0009042F232
:10272000E12042F69C134FF0000CC0F2000005A11E
:10273000C2F200034022CDF804C000F09BFC02B0BE
:1027400080BD00BF496E744D6174680070B582B081
:1027500004460A2002210022002600F061FA42F617
:102760000811C2F200010860C8B142F6081542F231
:10277000B930C2F20005C0F200000AA140222B4687
:102780000094019600F076FC42F22140C0F2000075
:1027900006A140222B460094019600F06BFC02B08B
:1027A00070BD00BF51436F6E734E42005150726F47
:1027B000644E4200F0B583B004460C20FFF75AFC8B
:1027C00040B30546012000210322002700F028FA2B
:1027D0002860F8B100210022002300F06DFA0420E7
:1027E000FFF748FC41F60D76FF21C0F20006686055
:1027F000016021A1304640222B46AF60009701972F
:1028000000F038FC1EA1304640222B46009701976D
:1028100000F030FC0C20FFF72DFC50B305460120E2
:1028200000210322002700F0FBF9286008B30021F3
:102830000022002300F040FA0420FFF71BFC40F6C2
:10284000FF7141F60D76686001606420C0F20006F9
:10285000A8600DA1304640222B460094019700F05D
:1028600009FC0BA1304640222B460094019700F052
:1028700001FC03B0F0BD00BF506F6C53454D3100FB
:10288000506F6C53454D3200426C6B53454D3100D7
:10289000426C6B53454D320010B558B1044600F000
:1028A0009FF820460021FFF72FF900F0FDFC0028DB
:1028B00018BF10BD4EF60450CEF200004FF080510C
:1028C0000160BFF34F8FBFF36F8F10BDB0B50D46E2
:1028D000044600F085F842F6B410C2F20000006829
:1028E0002268904202EB050102D2914202D309E034
:1028F000914201D3814205D92160081A0021FFF7D6
:1029000003F900E0216000F0CFFC002818BFB0BD43
:102910004EF60450CEF200004FF080510160BFF33C
:102920004F8FBFF36F8FB0BD42F65811C2F2000156
:102930000968016042F6B411C2F200010968416001
:102940007047000042F6B810C2F200000121016099
:102950007047000010B50C4640F27C01C2F2000145
:1029600009681831FFF7FCFC20460121FFF7CCF87D
:1029700010BD000010B582B042F65010C2F2000047
:10298000019041F67D500024C0F2000012A14022C7
:102990000023009400F06EFB01281BD142F6541076
:1029A0004FF0500282F31188BFF36F8FBFF34F8F48
:1029B000C2F200004FF0FF31016042F67C10C2F21B
:1029C00000000121016042F6B410C2F20000046070
:1029D00000F0E8F802B010BD49444C45000000008A
:1029E00042F6FC00C2F2000001680131016070474C
:1029F00042F6FC00C2F20000006830B142F6B810A6
:102A0000C2F2000001210160704742F6B810C2F224
:102A100000000021016042F60410C2F200000068CC
:102A2000B0FA80F040F28801C0B2C0F11F0000EBA4
:102A30008000C2F2000101EB800050F8041F4968D9
:102A4000021D9142016001D149680160006840F2B5
:102A50007C01C068C2F2000108607047F0B540F226
:102A6000D80C42F60C1E40F2DE0242F61213012090
:102A70000021C2F2000CC2F2000EC2F20002C2F249
:102A8000000300BF3CF811403EF811503CF81160C3
:102A90002EF8116032F8116033F81170F61B18BF70
:102AA0000646601B32F8114018BF304623F811402B
:102AB00001310329E6D1F0BD42F69C11C2F20001BA
:102AC00008680022002818BF01200A607047000033
:102AD00042F67011C2F20001086842F674134FF01A
:102AE0000002C2F2000320B11868002818BF0120BC
:102AF00000E000200A601A607047000080B542F6CE
:102B0000181C40F2E40E00210120C2F2000CC2F2B7
:102B1000000E00BF3CF811203EF81130D21A3EF8EA
:102B2000113008BF10462CF8113001310429F1D1C1
:102B300080BD000000000000000000000000000058
:102B4000EFF30980BFF36F8F154B1A681EF0100F5B
:102B500008BF20ED108A20E9F04F10602DE9090030
:102B60004FF0500080F31188BFF34F8FBFF36F8F8A
:102B7000FFF73EFF4FF0000080F31188BDE8090029
:102B800019680868B0E8F04F1EF0100F08BFB0ECED
:102B9000108A80F30988BFF36F8F704700BF00BFB2
:102BA0007C00002010B54EF62054CEF200042068C0
:102BB00040F470002060206840F070402060FFF713
:102BC000B9FC40F20800C2F2000000210160FFF7EA
:102BD00055FCD4F8140240F04040C4F81402FFF74A
:102BE0006DF9FFF705FFFFF7F9F9002010BD0000B0
:102BF00080B54FF0500080F31188BFF36F8FBFF3A3
:102C00004F8F00F06DFA30B14EF60450CEF2000056
:102C10004FF080510160002080F3118880BD0000DA
:102C200070B5054601FB00F00C464830002908BF8E
:102C30004820FFF71FFA064630B106F14802284641
:102C400021463346FFF79EF8304670BD70B50E46FC
:102C50000446FFF71DFCD4E90F1220680025A56388
:102C600002FB0103013901FB0201C4E90103FF205A
:102C7000E16084F8440084F8450004F1100036B1A6
:102C8000FFF75EFB04F12400FFF75AFB0FE0016839
:102C900069B100F0CBFA50B14EF60450CEF200000C
:102CA0004FF080510160BFF34F8FBFF36F8FFFF77D
:102CB000FFFB012070BD00002DE9F04F83B01D46E1
:102CC000884604460292FFF7E3FBA06B022D58D022
:102CD000E16B884255D304F1100701206E464FF096
:102CE000000A0DF108094FF0805B00BF029900292E
:102CF00064D0C0071CBF3046FFF716FEFFF7D8FBB5
:102D0000FFF76EFEFFF7C4FB94F84400FF2808BFEE
:102D100084F844A094F84500FF2808BF84F845A033
:102D2000FFF7C6FB3046494600F076F9002848D147
:102D30002046FFF7B5F8A8B102993846FFF70AFE1A
:102D40002046FFF75DF900F0AFFA80B94EF6045067
:102D5000CEF20000C0F800B0BFF34F8FBFF36F8F0B
:102D600005E000BF2046FFF74BF900F09DFAFFF7A2
:102D70008FFBA06B022D04D0E16B88424FF0000066
:102D8000B4D2204641462A46FEF7A2FF54F8240F4B
:102D900070B1204600F04AFA50B14EF60450CEF21F
:102DA00000004FF080510160BFF34F8FBFF36F8F72
:102DB000FFF77EFB012003B0BDE8F08FFFF778FB43
:102DC00004E02046FFF71CF900F06EFA002003B083
:102DD000BDE8F08F2DE9F04F85B00C46054600F1B7
:102DE0001009243002AF0DF1100A4FF000080492D0
:102DF000019009E02846FFF703F900F055FA28464C
:102E0000FFF742F8002876D1FFF742FBD5F838B03B
:102E1000BBF1000F1ED028462146FEF745FFABF15F
:102E20000100A863286970B1484600F0FFF950B16D
:102E30004EF604514FF08050CEF200010860BFF30F
:102E40004F8FBFF36F8FFFF733FB00200126A8B928
:102E500052E000BF049850B1B8F1000F02D13846DB
:102E6000FFF762FD4FF00108012038B944E0FFF799
:102E70001FFB0026002000283ED000BFFFF718FBF4
:102E8000FFF7AEFDFFF704FB95F84400FF2804BFF1
:102E9000002085F8440095F84500FF2804BF002075
:102EA00085F84500FFF704FB3846514600F0B4F8BA
:102EB00000289FD12846FEF7E7FFB0B1049901989A
:102EC000FFF748FD2846FFF79BF800F0EDF90028D2
:102ED0009AD14EF604514FF08050CEF200010860B6
:102EE000BFF34F8FBFF36F8F8EE72846FFF788F849
:102EF00000F0DAF988E70026304605B0BDE8F08F2B
:102F00002DE9F04F83B0044600F1100900F12408C8
:102F10004FF0000A6F4602AE4FF0000B029109E03D
:102F20002046FFF76DF800F0BFF92046FEF7ACFF32
:102F300000286CD1FFF7ACFAA06BC8B10138A063D0
:102F4000206970B1484600F071F950B14EF6045155
:102F50004FF08050CEF200010860BFF34F8FBFF3F7
:102F60006F8FFFF7A5FA00200125A8B950E000BF38
:102F7000029850B1BBF1000F02D13846FFF7D4FCE4
:102F80004FF0010B012038B942E0FFF791FA00251C
:102F9000002000283CD000BFFFF78AFAFFF720FD91
:102FA000FFF776FA94F84400FF2808BF84F844A09D
:102FB00094F84500FF2808BF84F845A0FFF778FA89
:102FC0003846314600F028F80028A9D12046FEF7FF
:102FD0005BFFB0B102994046FFF7BCFC2046FFF70B
:102FE0000FF800F061F90028A4D14EF604514FF01B
:102FF0008050CEF200010860BFF34F8FBFF36F8F98
:1030000098E72046FEF7FCFF00F04EF992E7002516
:10301000284603B0BDE8F08FB0B50C460546FFF773
:1030200037FA42F6B410C2F2000001682068421C70
:103030000DD042F658136A68C2F20003D3F800C0FC
:10304000914206D32B689C4503D001240EE0002456
:103050000CE0891A884206D9401A20602846FFF7FA
:1030600063FC002402E0002020600124FFF720FA26
:103070002046B0BD2DE9F04383B007469000984646
:1030800015468946FEF7F6FF78B106464C20FEF756
:10309000F1FF38B10446066354B94FF0FF3003B076
:1030A000BDE8F0833046FFF711FA0024002CF4D07D
:1030B000DDE90A102A464346CDE900103846494664
:1030C0000294FEF76BFE2046FEF770FD012003B070
:1030D000BDE8F08342F6B410C2F200000068704709
:1030E0002DE9F04F81B042F6FC00C2F2000000680A
:1030F00040B142F6F800C2F200000168002401313C
:10310000016087E042F6B410C2F2000001684E1C74
:10311000066014D340F2800040F28402C2F2000044
:10312000C2F2000201681368036042F65810116091
:10313000C2F20000016801310160FEF7D3FE42F6E1
:103140005411C2F20001086840F27C0A8642C2F2C1
:10315000000A01D200244FE040F2800BC2F2000BC3
:10316000DBF8000000240068002842D042F6041872
:103170000127C2F2000800BFDBF80000C068D0F8E9
:103180000C904D4655F8040F86422DD32846FFF784
:103190000BF8D9F8280000281CBF09F11800FFF728
:1031A00003F8D9F82C00D8F8002007FA00F100EB5A
:1031B0008000114340F28802C2F2000202EB80005C
:1031C000C8F800102946FFF7E9F8D9F82C00DAF81A
:1031D0000010C96ADBF800208842106828BF3C460E
:1031E0000028C9D14FF0FF3042F65411C2F200015D
:1031F00001E04FF0FF300860DAF8000040F288018B
:10320000C06AC2F2000100EB800051F820000128E2
:1032100088BF012442F6B810C2F2000000680028FE
:1032200018BF0124204601B0BDE8F08FB0B5C068DA
:10323000C56805F118042046FEF7B6FF42F6FC000B
:10324000C2F20000006820B142F65C10C2F2000039
:1032500015E02C1D2046FEF7A7FF42F60412E86A8F
:10326000C2F2000201211368814000EB8000194383
:1032700040F28803C2F2000303EB80001160214694
:10328000FFF78CF840F27C01C2F20001E86A09689D
:10329000C96A884291BF002042F6B811C2F200010B
:1032A000012088BF0860B0BD2DE9F04F81B0FFF765
:1032B000EFF842F6FC00C2F200000168013901603B
:1032C000006830B10024FFF7F3F8204601B0BDE8F4
:1032D000F08F42F6F000C2F20000006800285FD0D4
:1032E00042F65C16C2F20006306842F6B818C2F226
:1032F000000898B342F6041540F2880940F27C0AAF
:103300004FF0010BC2F20005C2F20009C2F2000A3E
:10331000F068C76807F11800FEF746FF3C1D20461D
:10332000FEF742FFF86A2A680BFA00F100EB800012
:10333000114309EB800029602146FFF72FF8F86A56
:10334000DAF80010C96A884228BFC8F800B03068AF
:103350000028DDD1002F18BFFEF7C4FD42F6F804A7
:10336000C2F2000425685DB1012600BFFFF7B8FE78
:10337000002818BFC8F80060013DF7D10020206088
:10338000D8F8000070B14EF60450CEF200004FF0B5
:1033900080510160BFF34F8F0124BFF36F8F92E71D
:1033A000002490E700248EE70FB4054B10B503A965
:1033B000044A029800F018F810BC5DF814FB0000F5
:1033C0006D1A00000000002002E008C8121F08C1AA
:1033D000002AFAD170477047002001E001C1121F96
:1033E000002AFBD1704700002DE9FF4F8BB09A46B1
:1033F0000F460546002606E025280BD052460D99BB
:1034000090476D1C761C28780028F5D10FB0304607
:10341000BDE8F08F0024A0460122604900E004438B
:1034200015F8013F203B02FA03F00842F7D1287853
:103430002E2817D115F8010F44F004042A280ED0C5
:103440006FF02F022878A0F1300109290AD808EB83
:10345000880102EB410100EB01086D1CF2E757F80F
:10346000048B6D1C287869283ED006DC0028CDD05E
:1034700063280BD0642804D136E0732810D0752857
:103480004BD052460D999047761C85E017F8040BF7
:103490008DF8000000208DF80100E946012003E0CE
:1034A00057F8049B4FF0FF3061074FF0000401D440
:1034B0000AE0641C44450DDA8442FADB19F8041072
:1034C0000029F6D106E0641C8442FCDB19F80410E4
:1034D0000029F8D1264404E019F8010B52460D9951
:1034E0009047641EF8D257E001CF4FF00A0B002836
:1034F00002DA40422D2102E0210504D52B218DF86E
:103500002410012103E0E10705D02021F7E70DF1A8
:10351000200908910CE00021F9E701CF4FF00A0BD8
:10352000F9E75946FCF76DFE01F1300209F8012D6B
:103530000028F6D1ADEB090000F1200B600701D4A3
:103540004FF00108D84502DDA8EB0B0000E0002099
:103550008046002406E009A85246005D0D99904778
:10356000641C761C08988442F5DB04E03020524647
:103570000D999047761CB8F10001A8F10108F5DC1F
:1035800005E019F8010B52460D999047761CBBF1E6
:103590000001ABF1010BF4DC6D1C34E709280100DC
:1035A0002E2E2F447269766572732F48414C5F440A
:1035B00072697665722F5372632F68616C5F7561F3
:1035C00072742E63002E2E2F447269766572732FEB
:1035D00048414C5F4472697665722F5372632F685D
:1035E000616C5F636F727465782E63002E2E2F44BA
:1035F0007269766572732F48414C5F4472697665D3
:10360000722F5372632F68616C5F7263632E630065
:103610002E2E2F447269766572732F48414C5F4499
:1036200072697665722F5372632F68616C5F677081
:10363000696F2E63002E2E2F447269766572732F88
:1036400048414C5F4472697665722F5372632F68EC
:10365000616C5F657874692E63000000803600003D
:103660000000002010000000C83300009036000069
:1036700010000020B0310000D8330000000000002E
:10368000000000000090D003AAAAAAAAF827000010
:0400000500000121D5
:00000001FF
