:020000040000FA
:10000000B8310020350100003D0100003F01000033
:100010004101000043010000450100000000000014
:10002000000000000000000000000000C1150000FA
:100030004901000000000000B9150000C9150000CA
:100040004F0100004F0100004F0100004F01000070
:100050004F0100004F0100004F0100004F01000060
:100060004F0100004F0100004F0100004F01000050
:100070004F0100004F0100004F0100004F01000040
:100080004F0100004F0100004F0100004F01000030
:100090004F0100004F0100004F0100004F01000020
:1000A0004F0100004F0100004F0100004F01000010
:1000B0004F0100004F0100004F0100004F01000000
:1000C0004F0100004F0100004F0100004F010000F0
:1000D0004F0100004F0100004F0100004F010000E0
:1000E0004F0100004F0100004F0100004F010000D0
:1000F0004F0100004F0100004F0100004F010000C0
:100100004F0100004F0100004F0100004F010000AF
:100110004F0100004F0100004F0100004F0100009F
:10012000DFF80CD000F0A2F80048004701190000E9
:10013000B83100200648804706480047FEE7FEE742
:10014000FEE7FEE7FEE7FEE7FEE7FEE7FEE7FEE787
:1001500029170000210100002DE9F05F054600206D
:1001600092469B4688460646814640241BE0284628
:1001700041464746224600F069F853465A46C01A9F
:10018000914110D311461846224600F050F82D1A1E
:1001900067EB01084F4622460120002100F047F896
:1001A00017EB00094E41201EA4F10104DFDC484694
:1001B00031462A464346BDE8F09F40EA01039B07CB
:1001C00003D009E008C9121F08C0042AFAD203E0CC
:1001D00011F8013B00F8013B521EF9D27047D2B230
:1001E00001E000F8012B491EFBD270470022F6E720
:1001F00010B513460A4604461946FFF7F0FF20469D
:1002000010BD30B50B46014600202022012409E034
:1002100021FA02F59D4205D303FA02F5491B04FABF
:1002200002F52844151EA2F10102F1DC30BD202A9E
:1002300004DB203A00FA02F1002070479140C2F13D
:10024000200320FA03F3194390407047202A04DB6F
:10025000203A21FA02F00021704721FA02F3D0403F
:10026000C2F120029140084319467047064C074DE1
:1002700006E0E06840F0010394E807009847103476
:10028000AC42F6D3FFF750FFB4340000D434000082
:1002900040F60061C0F22771884202D94FF44071E4
:1002A0002CE04EF20011C0F2F551884202D94FF411
:1002B000207123E04BF20041C0F2C441884202D9D0
:1002C0004FF400711AE048F20071C0F29331884295
:1002D00002D94FF4C07111E045F60021C0F262214D
:1002E000884202D94FF4807108E042F60052C0F211
:1002F00031124FF44071904288BF802142F20000D9
:10030000C4F20200026822F478621143016070476F
:1003100010B504464FF6FF70C0F2BF70044204D01F
:100320000020CFF64000204006D043F28E40C0F2BD
:100330000000A82101F0C0FA40F20041C4F201011E
:100340000868A04308604868A04348608868A043E4
:100350008860C86820EA04020020CA6010BD00005E
:1003600010B504464FF6FF70C0F2BF70044204D0CF
:100370000020CFF64000204007D043F28E40C0F26C
:1003800000004FF4987101F097FA40F21440C4F263
:100390000100046010BD00002DE9F0410C46B1F5EC
:1003A000005F804680F229807F2C00F33680601E3B
:1003B0003F2800F26480DFE800F06E6E626E6262D9
:1003C000626E626262626262626E626262626262F5
:1003D0006262626262626262626E626262626262F1
:1003E00062626262626262626262626262626262ED
:1003F0006262626262626262626EB4F5002F18DB52
:10040000B4F5000F22DBB4F1007F40DAB4F5000F41
:1004100041D0B4F1807F3ED031E0B4F5806F1FDA77
:10042000802C18BFB4F5807F35D0B4F5007F32D072
:1004300025E0B4F5803F1BDAB4F5005F18BFB4F5D2
:10044000804F28D0B4F5004F25D018E0B4F5002F28
:1004500018BFB4F5801F1ED0B4F5001F1BD00EE0EE
:1004600018BFB4F5006F16D0B4F5805F13D006E066
:1004700018BFB4F5003F0ED0B4F5802F0BD043F277
:100480008E40C0F20000C82101F016FA03E018BF48
:10049000B4F1806FF3D140F20046C4F20106306837
:1004A000204202D13068204232D0A5B2002D04BFD4
:1004B0000120BDE8F08108F138404FEAB027062F4F
:1004C00006D343F28E40C0F20000D82101F0F4F9C7
:1004D00041F20040C4F6000080450CD14FF6E070B8
:1004E000CFF64000204006D043F28E40C0F200001C
:1004F000D92101F0E1F900216FF01F0025FA01F286
:10050000D20708D1013135FA01F200F10400F5D12A
:100510000020BDE8F08107298EBFF169B169203064
:1005200021FA00F000F00F00052F28BF0527C01B9F
:10053000B0FA80F04009BDE8F08100002DE9F04FED
:1005400081B08B464FF6FF71C0F2BF7191461BEA36
:10055000010F804605D00020CFF6400010EA0B00C6
:1005600006D043F28E40C0F200003A2101F0A4F917
:100570004FF6FF74C1F2210400250027A145C1F206
:100580002205C1F211070CDCB9451DD00020C1F2D3
:100590001200814518D00020C1F22100814513D0FE
:1005A0000BE0A94510D00020C1F2310081450BD0ED
:1005B0000020C1F23200814506D043F28E40C0F2E5
:1005C00000003B2101F078F940F2084AC4F2010A28
:1005D0005AF8080C1FFA8BF620EA0B004AF8080CB0
:1005E0005AF8040C002E20EA0B004AF8040CDAF842
:1005F000000020EA0B00CAF80000DAF8040020EA44
:100600000B00CAF804005CD008F1384044464FEAB9
:10061000B028B8F1060F06D343F28E40C0F20000B6
:10062000482101F049F941F20040C4F6000084423B
:100630000DD14FF6E070CFF6400010EA0B0006D067
:1006400043F28E40C0F20000492101F035F9B8F1C3
:10065000050F28BF4FF00508DAF81010DAF814007B
:1006600001226FF01F030F250DE000BF05FA03F70D
:10067000B84308FA03F7384336FA02F702F10102E9
:1006800003F104030FD0571E26FA07F4E407F3D052
:10069000072FEBD803F1200705FA07F4A14308FA66
:1006A00007F73943E8E7002500274FF6FF74C1F24A
:1006B0002205C1F21107C1F22104CAF81010CAF8CC
:1006C0001400A14518DCB94535D00020C1F2120054
:1006D00081453DD00020C1F22100814564D1DAF886
:1006E000040040EA0B00CAF804005AF8080C40EA7B
:1006F0000B004AF8080C57E0A94536D00020C1F29B
:10070000310081453ED00020C1F2320081454BD1FD
:10071000DAF8000040EA0B00CAF80000DAF804003A
:1007200040EA0B00CAF804005AF8040C40EA0B0037
:100730004AF8040C38E0DAF8000040EA0B00CAF886
:1007400000005AF8080C40EA0B004AF8080C2BE0AD
:10075000DAF8000040EA0B00CAF800005AF8040C6E
:1007600040EA0B004AF8040C1EE0DAF8040040EA04
:100770000B00CAF804005AF8040C40EA0B004AF8CF
:10078000040C11E0DAF8000040EA0B00CAF800009F
:10079000DAF8040040EA0B00CAF804005AF8080C22
:1007A00040EA0B004AF8080C002001B0BDE8F08FC9
:1007B0002DE9F04F83B0834600F138404FEAB02076
:1007C00005280C46029136D220680021B1EB104F6B
:1007D00001D180B238B943F26940C0F200001B2158
:1007E00001F06AF8029C60684FF6FF71C1F21001D7
:1007F00088420ADC122845D8012101FA00F00F21B5
:10080000C0F20601084245D13CE04FF6FF71C1F24B
:100810002101884227DC0021C1F21101884239D030
:100820000021C1F21201884234D00021C1F221011D
:1008300088422FD026E00FD040F60000C4F600001A
:1008400000F5406643F26940C0F200001A2101F051
:1008500033F8029CB345B7D120681F28BBD810F0ED
:100860001F00C0D1B7E70021C1F22201884211D098
:100870000021C1F2310188420CD00021C1F23201C5
:10088000884207D043F26940C0F200001C2101F009
:1008900013F8029CA068032807D343F26940C0F212
:1008A00000001D2101F008F8029C2068002800F0DB
:1008B000FD8000266FF01F074FF0010917E000BF11
:1008C0002846FFF74DFD0298294642685846FFF733
:1008D00035FE029C002840F0E9802068023630FA9C
:1008E00009F109F1010907F1040700F0DF80A9F11E
:1008F000010A012101FA0AF810EA0805EDD040F6D4
:100900000000C4F6000083453CD1B5F5004F16D079
:10091000B5F5804F24D0B5F5005F33D141F2200109
:10092000C4F20201086847F2180240F00060086053
:10093000C4F200021068116820F0030020E041F2C8
:100940002001C4F20201086847F2180240F000607A
:100950000860C4F200021068116820F060000FE027
:1009600041F22001C4F20201086847F2180240F087
:1009700000600860C4F200021068116820F01800DE
:10098000084310606068019540F0100012281ED1E5
:100990002069102807D343F26940C0F200004021CB
:1009A00000F08AFF029C38461C21BAF1080F38BFBC
:1009B000203038BF18215BF801200F2325698340C0
:1009C0009A4305FA00F010434BF80100019D60685E
:1009D000122830D8012101FA00F010F0061F2AD0A9
:1009E000E068082807D343F26940C0F200005721AD
:1009F00000F062FF029C38462421BAF1080F38BF8C
:100A0000203038BF20215BF801200F23E5688340A8
:100A10009A4305FA00F010434BF80100DBF804009C
:100A2000616820EA0800C1F3001101FA0AF10843E5
:100A3000CBF80400019DDBF808000321B14020EA57
:100A40000102D4E90103C943032803FA06F342EA89
:100A50000302CBF80820DBF8282042EA0802CBF892
:100A60002820DBF8302014BF22EA080242EA0802FC
:100A7000CBF83020DBF80020114000F00302B24038
:100A80001143C000CBF800103FF51AAF5846294675
:100A9000FFF782FC029C00283FF41FAF2846FFF7B7
:100AA00037FC2846FFF75CFC029C16E703B0BDE864
:100AB000F08F000080B500F065FE00F0EDFE00F064
:100AC0007BF940F20401C2F2000108600F2001210D
:100AD00000F004F800F004F8002080BD002070470A
:100AE00070470000B0B504460068052807D343F2FC
:100AF0004540C0F200004FF4A37100F0DDFE6068D5
:100B0000102807D343F24540C0F2000040F24711DD
:100B100000F0D2FEA0684FEA301107290CD37038DC
:100B20004FEA3010092807D343F24540C0F20000D5
:100B30004FF4A47100F0C0FEE0686FF0030505EB10
:100B4000302104290AD34FEA302038B143F245401E
:100B5000C0F2000040F2491100F0AEFE206905EB42
:100B6000F02104290AD34FEAF02038B143F245407E
:100B7000C0F200004FF4A57100F09EFE42F20001A9
:100B8000C4F202010A68082060F3CB1241F2180097
:100B9000C4F202000A6050F8041C226821F0070128
:100BA0000A430021CFF6FF7140F8042C0A4600BF2B
:100BB0000368002B04D4013224BF0320B0BDF7E743
:100BC0000268636822F00F021A4302600A4600BFFF
:100BD0000368002B04D4013224BF0320B0BDF7E723
:100BE0000268A36822F0F0021A4302600A4600BFBE
:100BF0000368002B04D4013224BF0320B0BDF7E703
:100C00000268D4E9033522F47C521A432A43026075
:100C10000268002A04D4013124BF0320B0BDF7E7E5
:100C200000F0CAF840F20401C2F200010860FFF7C8
:100C30002FFB40F25801C2F2000108684969FFF732
:100C40004DFF0020B0BD000040F20400C2F20000E1
:100C50000068704780B5FFF7F7FF41F21801C4F252
:100C600002010968C1F302210439032988BF80BD4C
:100C7000DFE801F002080406400880BDC00880BD1E
:100C8000000980BD800880BD80B5FFF7DDFF41F21F
:100C90001801C4F202010968C1F3C2210439032911
:100CA00088BF80BDDFE801F002080406400880BD6F
:100CB000C00880BD000980BD800880BD40F23020A2
:100CC000C0F20800C168CA4392B2B2EB114F11BF23
:100CD0004FF4FA40006800EB8000400070470000CD
:100CE00040F22820C0F208000168CA4392B2B2EB79
:100CF000114F1EBF49F20000C0F2D030704740686B
:100D00004FF47A5100FB01F07047000010B541F23A
:100D10003404C4F2020454F8200C00F0070141F638
:100D200000300329C0F2B70011D8DFE801F0020A51
:100D3000440D54F8084CFFF7D3FF210748BF0009C2
:100D400010BDFFF7BBFF10BD4FF4004010BD216880
:100D500001F00601042906D000291CBF012010BDA6
:100D6000FFF7BEFF000943F64011CFF6D2714AF2F9
:100D70004052D4F800C02368D4F800E04418C0F210
:100D8000AE2294420BD8C3F30232531CB0FBF3F2F1
:100D900011444CF2C062C0F22D02914201D90020F0
:100DA00010BDCEF3C4010F3101FB00F0CCF30141C3
:100DB000B0FBF3F0C84010BD80B5FFF7A7FF41F2CC
:100DC0001801C4F202010A68096802F00F02C1F3B7
:100DD00003110132013101FB02F1B0FBF1F080BDE2
:100DE000F0B581B0044600681F2802D810F01F003B
:100DF00006D143F24540C0F200001B2100F05CFD2B
:100E000042F20000C4F202000168082262F3CB1132
:100E100001602078002541F23406C007CFF6FF7547
:100E2000C4F2020626D100272078800761D42078FA
:100E3000400700F180802078000700F1CB80207807
:100E4000C00600F12581002F00F09C81FFF7B4FF60
:100E500040F20401C2F200010860FFF719FA40F203
:100E60005801C2F2000108684969FFF737FE002007
:100E700001B0F0BD6068022806D343F24540C0F2DD
:100E80000000252100F018FD56F8200C616800F0E4
:100E90000700B0FA80F000294FEA501700F0E9800F
:100EA000A068022806D343F24540C0F200002E217C
:100EB00000F002FD56F8080C0090009820F00800A1
:100EC0000090A068002800F04081009840F00800E1
:100ED0000090009840F001000090009846F8080C3F
:100EE000284600BF56F8081CC9069DD40130F9D326
:100EF0005AE1E068022806D343F24540C0F2000000
:100F0000572100F0D9FC56F8200C00F0070001280A
:100F100008BF0746E168B068002900F00B8140F483
:100F20008070B060284600BFB16889053FF57FAF8B
:100F30000130F9D338E12069022806D343F2454055
:100F4000C0F200007D2100F0B7FC6069022806D3E2
:100F500043F24540C0F200007E2100F0ADFC56F89F
:100F6000200C00F00700022808BF01272069002894
:100F700000F0F4806069022806D343F24540C0F2D5
:100F80000000872100F098FC56F8040C00900098AF
:100F900020F002000090606918B1009840F0020053
:100FA0000090009820F00C000090009840F00C0099
:100FB0000090009840F001000090009846F8040C62
:100FC000284600BF56F8041CC9063FF534AF01306F
:100FD000F8D3E9E0A069022806D343F24540C0F205
:100FE0000000B62100F068FC56F8200C00F0070065
:100FF000032808BF0127A069002800F0C680E06927
:10100000022806D343F24540C0F20000BF2100F0A1
:1010100053FC206A4FEAF000072805D8012101FAA5
:1010200000F010F0990F06D143F24540C0F20000E5
:10103000C02100F041FCB0680090009820F03C0016
:101040000090E06918B1009840F004000090206A18
:10105000009908430090009840F00100009000982B
:10106000B0602846B16889073FF5E9AE0130F9D391
:101070009AE056F8080C20F0010046F8080C2846C3
:1010800056F8081CC9067FF5CFAE0130F8D38BE0C7
:10109000606A022806D343F24540C0F20000ED2109
:1010A00000F00AFC56F8200C00F00700042808BFE6
:1010B0000127606A00287AD0A06A40F00400042862
:1010C00007D043F24540C0F2000040F2031100F0A7
:1010D000F3FBE06A042807D343F24540C0F2000066
:1010E0004FF4827100F0E8FB206B082807D343F22D
:1010F0004540C0F2000040F2051100F0DDFB606BDE
:10110000202807D343F24540C0F200004FF483711A
:1011100000F0D2FB306840F001003060306820F40D
:1011200000103060284600BF316849004DD40130BE
:10113000FAD339E020F48070B0602846B1688905A0
:101140007FF575AE0130F9D32EE0606A00283FF4D8
:10115000C0AEA06A00287FF4BCAEB6E656F8040C18
:101160000090009820F00F000090009846F8040CC2
:10117000284600BF56F8041CC9067FF55CAE013056
:10118000F8D311E0002001B0F0BDB06800900098E5
:1011900020F03D0000900098B0602846B1688907B3
:1011A0007FF54DAE0130F9D3032001B0F0BD3068BA
:1011B00020F00100306000BF306840007FF543AE92
:1011C00001354FF00300F7D352E6306848F601715D
:1011D00000900098CFF6FC710840009004F12803BD
:1011E0000FCB01F0030140EA014002F0070140EAA1
:1011F0000130009AD900C9B210430843009000980A
:101200003060306840F48000306000BF30684000DB
:101210003FF519AE01354FF00300F7D328E6000083
:1012200010B5002871D00446016844F6FF30C4F2BE
:10123000000081424FF0010008DC44F20042C4F299
:10124000000291420ED044F6000207E043F600028D
:10125000C4F20102914205D044F60042C4F20002F9
:10126000914251D1A0684FEAB01004284DD8E068EF
:1012700040F00800082848D121690120062943D8F8
:1012800000FA01F111F0450F3ED061690120B1F57E
:10129000407F07DAB1F5807F0DD0B1F5007F18BF30
:1012A00010BD08E040F20032C2F20002914218BFC5
:1012B000B1F5407F28D1A0694FEAB030032824D887
:1012C000204600F025F8204600F078FA04F10803E3
:1012D0000ECB20681143194341F02001C161D4E9CC
:1012E000052140F20033C2F200039A4241EA0201B2
:1012F000416103D1816941F001018161416941F09E
:10130000010141610020206410BD012010BD0000DA
:10131000B0B586B00446006844F6FF31C4F200015F
:1013200088424FF000010591CDE90311CDE901118B
:101330004BDC44F20041C4F20001884200F0898095
:1013400044F60001C4F20001884240F0038141F2FA
:101350002400C4F20200416840F2004541F40061FB
:1013600041600168C4F6000541F01001016050F8C9
:10137000041C41F4802140F8041C4FF440600190AB
:10138000022002900120032103900491059001A9FD
:101390002846FFF70DFA607E000608D54FF400508E
:1013A00001900020059001A92846FFF701FA607E10
:1013B000400608D54FF4804001900020059001A917
:1013C0002846FFF7F5F92A24BBE044F60041C4F2B1
:1013D0000001884272D043F60001C4F20101884244
:1013E00040F0B88041F22400C4F20200016841F4E8
:1013F00000710160416841F480614160016841F021
:10140000100101604FF4C0600190022002900120A1
:1014100003210390CDE9041001A94FF09040FFF79C
:10142000C7F9607E000607D54FF40060019001A95E
:101430004FF09040FFF7BCF9607E400607D54FF4AF
:101440008050019001A94FF09040FFF7B1F9282496
:1014500077E041F22400C4F2020050F8041C012598
:1014600041F4003140F8041C416841F4806141605E
:10147000016841F0100101600C20019002200290EF
:1014800003200395CDE9040501A94FF09040FFF733
:101490008FF9607E000605D501A94FF090400195B7
:1014A000FFF786F9607E400606D50220019001A96B
:1014B0004FF09040FFF77CF9292442E041F22400EC
:1014C000C4F20200416841F480614160016841F06A
:1014D00010010160416841F400614160016841F020
:1014E0001001016050F8041C41F4002140F8041C74
:1014F00002210320029101210190CDE90310059002
:1015000001A94FF09040FFF753F9607E00060AD51D
:10151000802001900420059040F20040C4F60000B5
:1015200001A9FFF745F9607E400609D54FF4004058
:1015300001900320059001A94FF09040FFF738F982
:101540002B24204600F088F9204600F09DF9204623
:1015500000F08EF906B0B0BD10B5044630B344F6C5
:10156000FF30C4F2000084420CDC44F20040C4F2BC
:10157000000084421AD044F60000C4F20000844205
:1015800014D00BE044F60040C4F2000084420DD0B9
:1015900043F60000C4F20100844207D043F2204029
:1015A000C0F2000040F2625100F086F940F25400AF
:1015B000C2F20000046010BD01F002BA70470000E2
:1015C00000F0E6BE7047000001F052BA704700001C
:1015D00080B500204FF480614FF4005200F002F813
:1015E00080BD000070B594B00D46064606A83821AF
:1015F0001446FEF7FBFD00200B2ECDE90400CDE9DB
:101600000200019000F28D80DFE806F00610231E34
:1016100020222B3645506172112006900120CDE921
:1016200007000F9000200F21109008E01120069075
:101630000120CDE907000F900020109005211391A3
:101640001290119004215AE0012002E0022000E0F3
:10165000032002900120CDE90600002008900190AF
:101660004FE01420069001200A9000210F900420E2
:101670000F220B91109009E01420069001200A908F
:1016800000210F9004200B9110900522139202224A
:101690001292119129E014200690012000210422C9
:1016A0000F230A900B910F90109209E014200690DE
:1016B0000120002104220A900B910F901092052323
:1016C00013930223129311900192029119E01420B6
:1016D0000690012009220A9000210F900420139205
:1016E00002220B911090CDE911220190029108E0A5
:1016F0001420069001200A90002002210B900191F5
:1017000002900020CDE9030506A80594FFF768FBC9
:1017100008B100BFFEE701A8FFF7E4F908B100BF78
:10172000FEE714B070BD00004EF68850CEF2000007
:10173000016841F4700241F22C01C4F2020102601E
:101740000A6822F008020A600A6842F001020A6090
:101750000A68D206FCD551F8182C43F6FF7322F024
:10176000070241F8182C51F8142C9A4341F8142C14
:1017700051F8142CB2F1FF3FFADC002140F8801C34
:1017800070470000BFF34F8FBFF36F8F4EF650705E
:10179000CEF2000000210160BFF34F8FBFF36F8FC7
:1017A0004EF61450CEF20000016841F400310160A1
:1017B000BFF34F8FBFF36F8F7047000070B50446C3
:1017C000006843F60001C4F20101884202D0FFF72D
:1017D00041FA01E0FFF758FA616825680A01B0FB99
:1017E000F2F644F2402406FB1200C0F20F04A0FB04
:1017F00004010023FEF7B0FC89014AF2201241EAFD
:101800009061C0F2070212EB801041F10001224604
:101810000023FEF7A1FCA96840286FF395114FEA59
:1018200086120DD302F140004FF6C072C0F23F02A3
:1018300010400843A860A86820F03F01A96070BD6F
:101840004FF6C073C0F23F031A401143A960A96864
:1018500060F30501A96070BD00F01F00012101FACD
:1018600000F04EF28421CEF20001086070470000C3
:1018700000F01F00012101FA00F04EF20411CEF237
:101880000001086070470000E421C0F2E00161F34C
:101890001F205021017070474EF60C50CEF2000010
:1018A00001684FF6FF02114040F20032C0F2FA52D6
:1018B00011430160704700000A46014602A001F092
:1018C000B3FC00BFFEE700BF6661696C65643A6601
:1018D000696C653A25732C206C696E653A25750D27
:1018E0000A00000040F25401C2F200010968002918
:1018F00008BF7047086000BF4A689205FCD4704773
:1019000070B582B000F09EFA032004210022032566
:10191000002401F0C5F842F67411C2F2000108601B
:10192000002000F039FE0220022600F04FFE0120C8
:1019300000F080FE022000F07BFD42F2D500C0F2F4
:1019400000000BA1402200230095019401F0D2FA7F
:1019500042F2E930C0F2000007A1402200230096C5
:10196000019401F0C7FA00F045FF002002B070BDFD
:10197000436865636B0000005072696E740000007C
:10198000F0B581B00D4642F6B01140F27806C2F2D1
:101990000001C2F200060F6831680446081D00F01D
:1019A0003FFB10B1601C0FD019E0306842F6001206
:1019B000C06AC2F200020121136801FA00F023EAB2
:1019C00000001060601C0AD14DB13068011D42F664
:1019D0008410C2F2000000F01DFC01B0F0BD3068C0
:1019E000E41944600AD340F28000C2F200000068AB
:1019F0003168043100F0F0FB01B0F0BD40F27C0032
:101A0000C2F2000000683168043100F0E5FB42F6E4
:101A10005010C2F2000001688C4238BF046001B06F
:101A2000F0BD000070B5044600F06EFC42F6EC001C
:101A3000C2F20000016840F2780501310160C2F293
:101A40000005296842F67816C2F2000641B13068F6
:101A500060B92868E16AC06A884298BF2C6005E0D6
:101A60002C600068012801D100F012F942F6FC0058
:101A7000C2F20000016842F6001201310160E06A22
:101A8000C2F20002012113688140194300EB80007B
:101A9000116040F28401C2F2000101EB8000211DBF
:101AA00000F0B8FB00F040FC306880B12868E16AC3
:101AB000C06A884228BF70BD4EF60450CEF20000C6
:101AC0004FF080510160BFF34F8FBFF36F8F70BD38
:101AD000F0B581B042F6F005C2F200052868E0B129
:101AE00042F69C1642F6EC07C2F20006C2F200076C
:101AF00000F00AFCF068C468201D00F091FA386814
:101B00000138386028680138286000F00DFC204654
:101B100000F04CF828680028EAD101B0F0BD0000C0
:101B200080B5026C002A08BF80BDD0E902C313440F
:101B3000C360634524BF0368C360C3680846194691
:101B4000FEF73BFB80BD000070B5866B036C04465E
:101B500043B31546CAB1E0681A46FEF72EFBE168AA
:101B6000206C2268091A9142E16003D2A1684042C8
:101B70000844E060A81EB0FA80F040093146002E0B
:101B800018BF01210840361A0CE060681A46FEF7BB
:101B900014FBD4E90102216C08449042606001D337
:101BA00020686060701CA06370BD000010B5044622
:101BB000006B00F0C7FB204600F0C4FB10BD000026
:101BC00040F2EA00C2F20000083042F67C1120F038
:101BD0000700C2F200010022C1E9000242F64411EE
:101BE000C2F2000142F2F873C1E90023C0E9001318
:101BF00070470000FFF76CFFFCE7000080B500298C
:101C000014BF1A601B60C3E90F011846012100F0E0
:101C10005DFF80BD2DE9F0470A9F8246386BDDF8F5
:101C2000248000EB8200089C0438994620F00706C7
:101C3000002000BF0A5C3B1883F834200A5C1AB10C
:101C40000F2800F10100F5D30025381D87F8435017
:101C5000032C28BF0324FC6200F0BAFA07F1180035
:101C600000F0B6FAC4F10400B861304651464A4665
:101C70003F617F627D6487F8485000F09FF9B8F1BA
:101C8000000F386018BFC8F80070BDE8F08700008A
:101C9000B0B540F284050024C2F20005281900F016
:101CA0008BFA1434502CF9D142F61C14C2F2000401
:101CB000204600F081FA42F63015C2F200052846AF
:101CC00000F07AFA42F65810C2F2000000F074FAFE
:101CD00042F69C10C2F2000000F06EFA42F6841048
:101CE000C2F2000000F068FA40F27C00C2F200008C
:101CF000046040F28000C2F200000560B0BD000048
:101D000010B5044600F000FBA06BB0FA80F0440967
:101D100000F00AFB204610BD10B5044600F0F4FAAE
:101D2000A06BE16B401AB0FA80F0440900F0FCFAB5
:101D3000204610BD08480068006880F308884FF00E
:101D4000000080F3148862B661B6BFF34F8FBFF313
:101D50006F8F00DF00BF00BF08ED00E040F27C00A5
:101D6000C2F200000168096821B10068C068C0685B
:101D7000406801E04FF0FF3042F65011C2F200011E
:101D80000860704782B0044600F0BEFA40F2E800F6
:101D9000C2F20000B0F9008001880131018000F03A
:101DA000C3FAD4E9016040F2E0094EF6045A002774
:101DB0000125C2F20009CEF2000A4FF0805B002834
:101DC0000CBFFF2040F6FF70019005E0A06800EB1B
:101DD0008000400000F0A0FC2068A16800F0D0FF67
:101DE000012809D0A0680028F6D1CAF800B0BFF3D6
:101DF0004F8FBFF36F8FEFE730680199884218BFAC
:101E00002F460198002000BF30603168884218BF1B
:101E10002F46019901308842F6D92068002100221E
:101E2000002300F089FE002808BF0127B8F1030F46
:101E3000CCDC3804CAD139F81800013029F8180070
:101E4000C4E7000080B5FEF735FEFFF7C1FB00F0E8
:101E5000C9F880BD81B0002000904FF0500080F3A1
:101E60001188BFF36F8FBFF34F8F00BF009800281A
:101E7000FCD001B070470000F0B581B0044600F01E
:101E800043FA94F94560012E0FDB04F1240500BFED
:101E9000286850B1284601F009F9002818BF00F061
:101EA00091FC70B2013E0128F2DCFF2684F8456007
:101EB00000F03AFA00F028FA94F94470012F0EDB92
:101EC00004F11005286850B1284601F0EFF8002809
:101ED00018BF00F077FC78B2013F0128F2DC84F8EB
:101EE000446000F021FA01B0F0BD000070B5044676
:101EF00000F0B6FC40F27405C2F20005287818B96B
:101F0000FFF75EFE012028703CB104F1080010F0DC
:101F100007011CBF601A103000E00020411E42F291
:101F2000F672914217D842F67C15C2F200052B6872
:101F3000194651F8044F844213D21A686AB100BF9F
:101F4000114651F8044F1D461346844209D21A68BF
:101F5000002AF5D105E000262BE042F67C15C2F2FE
:101F6000000542F64412C2F20002934220D02A68D1
:101F7000241A02F108061A68112C2A600FD31A18C5
:101F800054600860506842F67C13C2F2000300BF40
:101F90001D461B685C688442FAD313602A60086897
:101FA00040F20C01C2F200010A68101A086000E059
:101FB000002601F0B9F8304670BD0000034641F636
:101FC0005560C0F200004FF0807C21F0010103E970
:101FD00003106FF0020043F8240CA3F1440043F80F
:101FE000202C704710B540F2100444F200434FF427
:101FF000E130C2F20004C4F20003C02100224FF419
:10200000407CC4E900302046C4E90212C4E9042C33
:10201000A261FFF705F92068FFF79EFA10BD0000E6
:10202000D0E90123016993604B68D0F808C083426E
:10203000CCF8042001D182684A600022026108685D
:10204000013808600868704710B5044600F05CF974
:10205000A46B00F069F9204610BD000082B0044670
:1020600000260DF10605002700E00136D4E9000244
:10207000294600F0EFFD0128F8D1BDF80600B1B205
:10208000884206D1002FF0D1A0680188013101807B
:10209000EBE701270646E9E782B0044600260DF18A
:1020A0000605ADF8066004E0BDF806000130ADF8A5
:1020B0000600D4E900022946002300F03DFD012876
:1020C00006D1002EF0D1A068018801310180EBE734
:1020D0000126EEE784B01CA002901DA0019000F044
:1020E00039FF42F6741A002601270DF10409C2F2E5
:1020F000000A0DF1080B039003A841F2883100F0AB
:1021000025FB00F019FC80F0010400F021FC80F0B8
:10211000010800F033FC054600F0E0FB54EA08013A
:1021200018BF3E46012D18BF3E46012818BF3E4647
:10213000DAF8000059464FF0FF320023012E08BFA5
:10214000494600F0F9FCD7E7504153530D0A00000F
:102150004641494C0D0A000082B049F2474A42F21A
:10216000934447F21B76804600254FF07B09C0F26E
:10217000030AC9F24924CFF6FE760127CDF8049070
:102180000198504401900198A0EB800001900198C3
:1021900054FB0000811001EBD07001900198B04217
:1021A00018BF3D462804E9D100F0AEF8C8F8007029
:1021B00000F0BAF8E2E700004FF0FF31024642F8C3
:1021C000081F00214260C0E903220160704700003F
:1021D000002101617047000080B5D1F800C01CF1FA
:1021E000010207D000F108039E465B681A68624549
:1021F000FAD901E0D0F810E0DEF8042008614A6066
:102200009160C1F808E0CEF8041001680131016066
:1022100080BD0000D0F800C0436808619A684B6038
:102220008A609A68996051600CF101010160704701
:1022300082B042F66C18044600270DF10605C2F282
:102240000008002603E000BF07460126471C20685F
:10225000FFF7FAFED8B120682946002200F0FAFC08
:102260000128F4D1BDF80600B9B28842ECD116B10C
:1022700001260137EBE700F047F8D8F800000130FD
:10228000C8F8000000F050F800260137DFE7B4205E
:1022900000F042FADBE7000082B042F67018044614
:1022A00000270DF10605C2F200080026ADF8067001
:1022B000206829460022002300F03EFC01280FD1AF
:1022C00046B900F021F8D8F800000130C8F8000045
:1022D00000F02AF8BDF806000130ADF8060000E075
:1022E00001260137032FE3D1C82000F015FA00279B
:1022F000DEE70000DFF80C00016841F470010160C6
:10230000704700BF88ED00E04FF0500080F3118867
:10231000BFF36F8FBFF34F8F40F20800C2F200008F
:10232000016801310160704740F20800C2F200000C
:1023300001680139016018BF7047002080F31188DF
:1023400070470000002808BF704710B5044600F031
:1023500087FA54F8040C42F67C12C2F2000200BF65
:102360001146126853688342FAD344F8082D40F2AC
:102370000C02C2F2000213680C601844106000F0F6
:10238000D3FEBDE8104070470000000000000000D0
:10239000074B19680868B0E8F04F80F30988BFF36D
:1023A0006F8F4FF0000080F31188704700BF00BFAF
:1023B000780000204EF21000CEF2000000210160F3
:1023C000816040F20401C2F20001096844F6D35270
:1023D000C1F26202A1FB02124FF0FF3101EB921138
:1023E000416007210160704782B042F6741540F2E7
:1023F00010060020C2F2000501ACC2F200060190F6
:10240000286821464FF0FF3200F024FC0198017843
:102410000029F5D0316803E001980278002AEFD056
:102420004A689206F8D4421C019200780860F3E7EB
:102430002DE9F04F83B005460C20FFF757FD064607
:102440000120022100224FF0000900F029FB40F298
:10245000D4084FF47A7A3060C2F200080C20C6E942
:1024600001A8FFF743FD31680746016040F2DA003A
:1024700042F25D0BC2F20000C0F2000BC7E901900E
:10248000044639A15846402233460095CDF80490C1
:1024900000F030FD42F29906C0F2000634A1304649
:1024A00040223B46CDF80090CDF8049000F022FD8C
:1024B0000C20FFF71BFD074601200221002200F03F
:1024C000EFFAA11CC7E900090C20B960FFF70EFD67
:1024D0000446386808F10201C4E9000AA16026A197
:1024E000584640223B46CDF80090CDF8049000F0CD
:1024F00001FD23A13046402223460095CDF80490EB
:1025000000F0F8FC0C20FFF7F1FC04460520022146
:10251000002200F0C5FA40F2DA01C2F200010431F3
:10252000C4E9000A0C20A160FFF7E0FC0546206822
:1025300008F10401C5E9000AA96013A13046402250
:102540002346CDF80090CDF8049000F0D3FC10A104
:10255000584640222B46CDF80090CDF8049000F06C
:10256000C9FC03B0BDE8F08F51436F6E7342310078
:102570005150726F6442320051436F6E73423300A8
:102580005150726F644234005150726F6442350092
:1025900051436F6E7342360080B582B0009042F2B4
:1025A000591042F698134FF0000CC0F2000005A13C
:1025B000C2F200034022CDF804C000F09BFC02B040
:1025C00080BD00BF496E744D6174680070B582B003
:1025D00004460A2002210022002600F061FA42F699
:1025E0000411C2F200010860C8B142F6041542F2BB
:1025F0003120C2F20005C0F200000AA140222B46A1
:102600000094019600F076FC42F29920C0F200009E
:1026100006A140222B460094019600F06BFC02B00C
:1026200070BD00BF51436F6E734E42005150726FC8
:10263000644E4200F0B583B004460C20FFF756FC10
:1026400040B30546012000210322002700F028FAAC
:102650002860F8B100210022002300F06DFA042068
:10266000FFF744FC41F68556FF21C0F20006686082
:10267000016021A1304640222B46AF6000970197B0
:1026800000F038FC1EA1304640222B4600970197EF
:1026900000F030FC0C20FFF729FC50B30546012068
:1026A00000210322002700F0FBF9286008B3002175
:1026B0000022002300F040FA0420FFF717FC40F648
:1026C000FF7141F68556686001606420C0F2000623
:1026D000A8600DA1304640222B460094019700F0DF
:1026E00009FC0BA1304640222B460094019700F0D4
:1026F00001FC03B0F0BD00BF506F6C53454D31007D
:10270000506F6C53454D3200426C6B53454D310058
:10271000426C6B53454D320010B558B1044600F081
:102720009FF820460021FFF72BF900F0FDFC002860
:1027300018BF10BD4EF60450CEF200004FF080518D
:102740000160BFF34F8FBFF36F8F10BDB0B50D4663
:10275000044600F085F842F6B010C2F200000068AE
:102760002268904202EB050102D2914202D309E0B5
:10277000914201D3814205D92160081A0021FFF757
:10278000FFF800E0216000F0CFFC002818BFB0BDCA
:102790004EF60450CEF200004FF080510160BFF3BE
:1027A0004F8FBFF36F8FB0BD42F65411C2F20001DC
:1027B0000968016042F6B011C2F200010968416087
:1027C0007047000042F6B410C2F20000012101601F
:1027D0007047000010B50C4640F27801C2F20001CB
:1027E00009681831FFF7F8FC20460121FFF7C8F807
:1027F00010BD000010B582B042F64C10C2F20000CD
:10280000019041F6F5300024C0F2000012A14022F0
:102810000023009400F06EFB01281BD142F65010FB
:102820004FF0500282F31188BFF36F8FBFF34F8FC9
:10283000C2F200004FF0FF31016042F67810C2F2A0
:1028400000000121016042F6B010C2F200000460F5
:1028500000F0E8F802B010BD49444C45000000000B
:1028600042F6F800C2F200000168013101607047D1
:1028700042F6F800C2F20000006830B142F6B4102F
:10288000C2F2000001210160704742F6B410C2F2AA
:1028900000000021016042F60010C2F20000006852
:1028A000B0FA80F040F28401C0B2C0F11F0000EB2A
:1028B0008000C2F2000101EB800050F8041F49685B
:1028C000021D9142016001D149680160006840F237
:1028D0007801C068C2F2000108607047F0B540F2AC
:1028E000D40C42F6081E40F2DA0242F60E13012022
:1028F0000021C2F2000CC2F2000EC2F20002C2F2CB
:10290000000300BF3CF811403EF811503CF8116044
:102910002EF8116032F8116033F81170F61B18BFF1
:102920000646601B32F8114018BF304623F81140AC
:1029300001310329E6D1F0BD42F69811C2F200013F
:1029400008680022002818BF01200A6070470000B4
:1029500042F66C11C2F20001086842F670134FF0A3
:102960000002C2F2000320B11868002818BF01203D
:1029700000E000200A601A607047000080B542F64F
:10298000141C40F2E00E00210120C2F2000CC2F241
:10299000000E00BF3CF811203EF81130D21A3EF86C
:1029A000113008BF10462CF8113001310429F1D143
:1029B00080BD0000000000000000000000000000DA
:1029C000EFF30980BFF36F8F154B1A681EF0100FDD
:1029D00008BF20ED108A20E9F04F10602DE90900B2
:1029E0004FF0500080F31188BFF34F8FBFF36F8F0C
:1029F000FFF73EFF4FF0000080F31188BDE80900AB
:102A000019680868B0E8F04F1EF0100F08BFB0EC6E
:102A1000108A80F30988BFF36F8F704700BF00BF33
:102A20007800002010B54EF62054CEF20004206845
:102A300040F470002060206840F070402060FFF794
:102A4000B9FC40F20800C2F2000000210160FFF76B
:102A500051FCD4F8140240F04040C4F81402FFF7CF
:102A600069F9FFF705FFFFF7F5F9002010BD000039
:102A700080B54FF0500080F31188BFF36F8FBFF324
:102A80004F8F00F06DFA30B14EF60450CEF20000D8
:102A90004FF080510160002080F3118880BD00005C
:102AA00070B5054601FB00F00C464830002908BF10
:102AB0004820FFF71BFA064630B106F148022846C7
:102AC00021463346FFF79AF8304670BD70B50E4682
:102AD0000446FFF719FCD4E90F1220680025A5630E
:102AE00002FB0103013901FB0201C4E90103FF20DC
:102AF000E16084F8440084F8450004F1100036B128
:102B0000FFF75AFB04F12400FFF756FB0FE00168C2
:102B100069B100F0CBFA50B14EF60450CEF200008D
:102B20004FF080510160BFF34F8FBFF36F8FFFF7FE
:102B3000FBFB012070BD00002DE9F04F83B01D4666
:102B4000884604460292FFF7DFFBA06B022D58D0A7
:102B5000E16B884255D304F1100701206E464FF017
:102B6000000A0DF108094FF0805B00BF02990029AF
:102B700064D0C0071CBF3046FFF716FEFFF7D4FB3A
:102B8000FFF76EFEFFF7C0FB94F84400FF2808BF74
:102B900084F844A094F84500FF2808BF84F845A0B5
:102BA000FFF7C2FB3046494600F076F9002848D1CD
:102BB0002046FFF7B1F8A8B102993846FFF70AFEA0
:102BC0002046FFF759F900F0AFFA80B94EF60450ED
:102BD000CEF20000C0F800B0BFF34F8FBFF36F8F8D
:102BE00005E000BF2046FFF747F900F09DFAFFF728
:102BF0008BFBA06B022D04D0E16B88424FF00000EC
:102C0000B4D2204641462A46FEF79EFF54F8240FD0
:102C100070B1204600F04AFA50B14EF60450CEF2A0
:102C200000004FF080510160BFF34F8FBFF36F8FF3
:102C3000FFF77AFB012003B0BDE8F08FFFF774FBCC
:102C400004E02046FFF718F900F06EFA002003B008
:102C5000BDE8F08F2DE9F04F85B00C46054600F138
:102C60001009243002AF0DF1100A4FF00008049251
:102C7000019009E02846FFF7FFF800F055FA2846D2
:102C8000FFF73EF8002876D1FFF73EFBD5F838B0C5
:102C9000BBF1000F1ED028462146FEF741FFABF1E5
:102CA0000100A863286970B1484600F0FFF950B1EF
:102CB0004EF604514FF08050CEF200010860BFF391
:102CC0004F8FBFF36F8FFFF72FFB00200126A8B9AE
:102CD00052E000BF049850B1B8F1000F02D138465D
:102CE000FFF762FD4FF00108012038B944E0FFF71B
:102CF0001BFB0026002000283ED000BFFFF714FB7E
:102D0000FFF7AEFDFFF700FB95F84400FF2804BF76
:102D1000002085F8440095F84500FF2804BF0020F6
:102D200085F84500FFF700FB3846514600F0B4F83F
:102D300000289FD12846FEF7E3FFB0B1049901981F
:102D4000FFF748FD2846FFF797F800F0EDF9002857
:102D50009AD14EF604514FF08050CEF20001086037
:102D6000BFF34F8FBFF36F8F8EE72846FFF784F8CE
:102D700000F0DAF988E70026304605B0BDE8F08FAC
:102D80002DE9F04F83B0044600F1100900F124084A
:102D90004FF0000A6F4602AE4FF0000B029109E0BF
:102DA0002046FFF769F800F0BFF92046FEF7A8FFBC
:102DB00000286CD1FFF7A8FAA06BC8B10138A06356
:102DC000206970B1484600F071F950B14EF60451D7
:102DD0004FF08050CEF200010860BFF34F8FBFF379
:102DE0006F8FFFF7A1FA00200125A8B950E000BFBE
:102DF000029850B1BBF1000F02D13846FFF7D4FC66
:102E00004FF0010B012038B942E0FFF78DFA0025A1
:102E1000002000283CD000BFFFF786FAFFF720FD16
:102E2000FFF772FA94F84400FF2808BF84F844A022
:102E300094F84500FF2808BF84F845A0FFF774FA0E
:102E40003846314600F028F80028A9D12046FEF780
:102E500057FFB0B102994046FFF7BCFC2046FFF790
:102E60000BF800F061F90028A4D14EF604514FF0A0
:102E70008050CEF200010860BFF34F8FBFF36F8F19
:102E800098E72046FEF7F8FF00F04EF992E700259C
:102E9000284603B0BDE8F08FB0B50C460546FFF7F5
:102EA00033FA42F6B010C2F2000001682068421CFA
:102EB0000DD042F654136A68C2F20003D3F800C082
:102EC000914206D32B689C4503D001240EE00024D8
:102ED0000CE0891A884206D9401A20602846FFF77C
:102EE00063FC002402E0002020600124FFF71CFAAC
:102EF0002046B0BD2DE9F04383B0074690009846C8
:102F000015468946FEF7F2FF78B106464C20FEF7DB
:102F1000EDFF38B10446066354B94FF0FF3003B0FB
:102F2000BDE8F0833046FFF70DFA0024002CF4D002
:102F3000DDE90A102A464346CDE9001038464946E5
:102F40000294FEF767FE2046FEF76CFD012003B0F9
:102F5000BDE8F08342F6B010C2F20000006870478E
:102F60002DE9F04F81B042F6F800C2F2000000688F
:102F700040B142F6F400C2F20000016800240131C1
:102F8000016087E042F6B010C2F2000001684E1CFA
:102F9000066014D340F27C0040F28002C2F20000CE
:102FA000C2F2000201681368036042F65410116017
:102FB000C2F20000016801310160FEF7CFFE42F667
:102FC0005011C2F20001086840F2780A8642C2F24B
:102FD000000A01D200244FE040F27C0BC2F2000B49
:102FE000DBF8000000240068002842D042F60018F8
:102FF0000127C2F2000800BFDBF80000C068D0F86B
:103000000C904D4655F8040F86422DD32846FFF705
:1030100007F8D9F8280000281CBF09F11800FEF7AE
:10302000FFFFD9F82C00D8F8002007FA00F100EBD8
:103030008000114340F28402C2F2000202EB8000E1
:10304000C8F800102946FFF7E5F8D9F82C00DAF89F
:103050000010C96ADBF800208842106828BF3C468F
:103060000028C9D14FF0FF3042F65011C2F20001E2
:1030700001E04FF0FF300860DAF8000040F2840110
:10308000C06AC2F2000100EB800051F82000012864
:1030900088BF012442F6B410C2F200000068002884
:1030A00018BF0124204601B0BDE8F08FB0B5C0685C
:1030B000C56805F118042046FEF7B2FF42F6F80095
:1030C000C2F20000006820B142F65810C2F20000BF
:1030D00015E02C1D2046FEF7A3FF42F60012E86A19
:1030E000C2F2000201211368814000EB8000194305
:1030F00040F28403C2F2000303EB8000116021461A
:10310000FFF788F840F27801C2F20001E86A096826
:10311000C96A884291BF002042F6B411C2F2000190
:10312000012088BF0860B0BD2DE9F04F81B0FFF7E6
:10313000EBF842F6F800C2F20000016801390160C4
:10314000006830B10024FFF7EFF8204601B0BDE879
:10315000F08F42F6EC00C2F20000006800285FD059
:1031600042F65816C2F20006306842F6B418C2F2AF
:10317000000898B342F6001540F2840940F2780A3C
:103180004FF0010BC2F20005C2F20009C2F2000AC0
:10319000F068C76807F11800FEF742FF3C1D2046A3
:1031A000FEF73EFFF86A2A680BFA00F100EB800098
:1031B000114309EB800029602146FFF72BF8F86ADC
:1031C000DAF80010C96A884228BFC8F800B0306831
:1031D0000028DDD1002F18BFFEF7C0FD42F6F40431
:1031E000C2F2000425685DB1012600BFFFF7B8FEFA
:1031F000002818BFC8F80060013DF7D1002020600A
:10320000D8F8000070B14EF60450CEF200004FF036
:1032100080510160BFF34F8F0124BFF36F8F92E79E
:10322000002490E700248EE70FB4054B10B503A9E6
:10323000044A029800F018F810BC5DF814FB000076
:10324000E51800000000002002E008C8121F08C1B5
:10325000002AFAD170477047002001E001C1121F17
:10326000002AFBD1704700002DE9FF4F8BB09A4632
:103270000F460546002606E025280BD052460D993C
:1032800090476D1C761C28780028F5D10FB0304689
:10329000BDE8F08F0024A0460122604900E004430D
:1032A00015F8013F203B02FA03F00842F7D12878D5
:1032B0002E2817D115F8010F44F004042A280ED047
:1032C0006FF02F022878A0F1300109290AD808EB05
:1032D000880102EB410100EB01086D1CF2E757F891
:1032E000048B6D1C287869283ED006DC0028CDD0E0
:1032F00063280BD0642804D136E0732810D07528D9
:103300004BD052460D999047761C85E017F8040B78
:103310008DF8000000208DF80100E946012003E04F
:1033200057F8049B4FF0FF3061074FF0000401D4C1
:103330000AE0641C44450DDA8442FADB19F80410F3
:103340000029F6D106E0641C8442FCDB19F8041065
:103350000029F8D1264404E019F8010B52460D99D2
:103360009047641EF8D257E001CF4FF00A0B0028B7
:1033700002DA40422D2102E0210504D52B218DF8EF
:103380002410012103E0E10705D02021F7E70DF12A
:10339000200908910CE00021F9E701CF4FF00A0B5A
:1033A000F9E75946FCF72DFF01F1300209F8012D2C
:1033B0000028F6D1ADEB090000F1200B600701D425
:1033C0004FF00108D84502DDA8EB0B0000E000201B
:1033D0008046002406E009A85246005D0D999047FA
:1033E000641C761C08988442F5DB04E030205246C9
:1033F0000D999047761CB8F10001A8F10108F5DCA1
:1034000005E019F8010B52460D999047761CBBF167
:103410000001ABF1010BF4DC6D1C34E7092801005D
:103420002E2E2F447269766572732F48414C5F448B
:1034300072697665722F5372632F68616C5F756174
:1034400072742E63002E2E2F447269766572732F6C
:1034500048414C5F4472697665722F5372632F68DE
:10346000616C5F7263632E63002E2E2F4472697647
:103470006572732F48414C5F4472697665722F53B1
:1034800072632F68616C5F6770696F2E63002E2E08
:103490002F447269766572732F48414C5F4472699C
:1034A0007665722F5372632F68616C5F65787469FB
:1034B0002E630000D834000000000020100000003F
:1034C00048320000E834000010000020A83100005D
:1034D0005832000000000000000000000090D003FF
:0834E000AAAAAAAAF82700001D
:0400000500000121D5
:00000001FF
